{
  "_format": "hh-sol-artifact-1",
  "contractName": "ERC4907",
  "sourceName": "contracts/ERC4907.sol",
  "address": "0x3bC40Dcf8cC86cB58c225ADe05F3b200B8Baae93",
  "abi": [
    {
      "inputs": [
        {
          "internalType": "string",
          "name": "name_",
          "type": "string"
        },
        {
          "internalType": "string",
          "name": "symbol_",
          "type": "string"
        }
      ],
      "stateMutability": "nonpayable",
      "type": "constructor"
    },
    {
      "inputs": [
        {
          "internalType": "address",
          "name": "sender",
          "type": "address"
        },
        {
          "internalType": "uint256",
          "name": "tokenId",
          "type": "uint256"
        },
        {
          "internalType": "address",
          "name": "owner",
          "type": "address"
        }
      ],
      "name": "ERC721IncorrectOwner",
      "type": "error"
    },
    {
      "inputs": [
        {
          "internalType": "address",
          "name": "operator",
          "type": "address"
        },
        {
          "internalType": "uint256",
          "name": "tokenId",
          "type": "uint256"
        }
      ],
      "name": "ERC721InsufficientApproval",
      "type": "error"
    },
    {
      "inputs": [
        {
          "internalType": "address",
          "name": "approver",
          "type": "address"
        }
      ],
      "name": "ERC721InvalidApprover",
      "type": "error"
    },
    {
      "inputs": [
        {
          "internalType": "address",
          "name": "operator",
          "type": "address"
        }
      ],
      "name": "ERC721InvalidOperator",
      "type": "error"
    },
    {
      "inputs": [
        {
          "internalType": "address",
          "name": "owner",
          "type": "address"
        }
      ],
      "name": "ERC721InvalidOwner",
      "type": "error"
    },
    {
      "inputs": [
        {
          "internalType": "address",
          "name": "receiver",
          "type": "address"
        }
      ],
      "name": "ERC721InvalidReceiver",
      "type": "error"
    },
    {
      "inputs": [
        {
          "internalType": "address",
          "name": "sender",
          "type": "address"
        }
      ],
      "name": "ERC721InvalidSender",
      "type": "error"
    },
    {
      "inputs": [
        {
          "internalType": "uint256",
          "name": "tokenId",
          "type": "uint256"
        }
      ],
      "name": "ERC721NonexistentToken",
      "type": "error"
    },
    {
      "anonymous": false,
      "inputs": [
        {
          "indexed": true,
          "internalType": "address",
          "name": "owner",
          "type": "address"
        },
        {
          "indexed": true,
          "internalType": "address",
          "name": "approved",
          "type": "address"
        },
        {
          "indexed": true,
          "internalType": "uint256",
          "name": "tokenId",
          "type": "uint256"
        }
      ],
      "name": "Approval",
      "type": "event"
    },
    {
      "anonymous": false,
      "inputs": [
        {
          "indexed": true,
          "internalType": "address",
          "name": "owner",
          "type": "address"
        },
        {
          "indexed": true,
          "internalType": "address",
          "name": "operator",
          "type": "address"
        },
        {
          "indexed": false,
          "internalType": "bool",
          "name": "approved",
          "type": "bool"
        }
      ],
      "name": "ApprovalForAll",
      "type": "event"
    },
    {
      "anonymous": false,
      "inputs": [
        {
          "indexed": true,
          "internalType": "uint256",
          "name": "tokenId",
          "type": "uint256"
        },
        {
          "indexed": true,
          "internalType": "address",
          "name": "owner",
          "type": "address"
        },
        {
          "indexed": false,
          "internalType": "string",
          "name": "name",
          "type": "string"
        },
        {
          "indexed": false,
          "internalType": "string",
          "name": "location",
          "type": "string"
        },
        {
          "indexed": false,
          "internalType": "string",
          "name": "imageIPFSHash",
          "type": "string"
        },
        {
          "indexed": false,
          "internalType": "uint256",
          "name": "price",
          "type": "uint256"
        }
      ],
      "name": "PropertyListed",
      "type": "event"
    },
    {
      "anonymous": false,
      "inputs": [
        {
          "indexed": true,
          "internalType": "uint256",
          "name": "tokenId",
          "type": "uint256"
        },
        {
          "indexed": true,
          "internalType": "address",
          "name": "user",
          "type": "address"
        },
        {
          "indexed": false,
          "internalType": "uint256",
          "name": "expires",
          "type": "uint256"
        }
      ],
      "name": "PropertyRented",
      "type": "event"
    },
    {
      "anonymous": false,
      "inputs": [
        {
          "indexed": true,
          "internalType": "address",
          "name": "from",
          "type": "address"
        },
        {
          "indexed": true,
          "internalType": "address",
          "name": "to",
          "type": "address"
        },
        {
          "indexed": true,
          "internalType": "uint256",
          "name": "tokenId",
          "type": "uint256"
        }
      ],
      "name": "Transfer",
      "type": "event"
    },
    {
      "anonymous": false,
      "inputs": [
        {
          "indexed": true,
          "internalType": "uint256",
          "name": "tokenId",
          "type": "uint256"
        },
        {
          "indexed": true,
          "internalType": "address",
          "name": "user",
          "type": "address"
        },
        {
          "indexed": false,
          "internalType": "uint64",
          "name": "expires",
          "type": "uint64"
        }
      ],
      "name": "UpdateUser",
      "type": "event"
    },
    {
      "inputs": [],
      "name": "allAvailableRentingProperties",
      "outputs": [
        {
          "components": [
            {
              "internalType": "address",
              "name": "user",
              "type": "address"
            },
            {
              "internalType": "uint64",
              "name": "expires",
              "type": "uint64"
            },
            {
              "internalType": "string",
              "name": "propertyName",
              "type": "string"
            },
            {
              "internalType": "string",
              "name": "location",
              "type": "string"
            },
            {
              "internalType": "uint256",
              "name": "price",
              "type": "uint256"
            },
            {
              "internalType": "string",
              "name": "imageIPFSHash",
              "type": "string"
            },
            {
              "internalType": "uint256",
              "name": "tokenId",
              "type": "uint256"
            },
            {
              "internalType": "address",
              "name": "owner",
              "type": "address"
            }
          ],
          "internalType": "struct ERC4907.UserInfo[]",
          "name": "",
          "type": "tuple[]"
        }
      ],
      "stateMutability": "view",
      "type": "function"
    },
    {
      "inputs": [
        {
          "internalType": "address",
          "name": "to",
          "type": "address"
        },
        {
          "internalType": "uint256",
          "name": "tokenId",
          "type": "uint256"
        }
      ],
      "name": "approve",
      "outputs": [],
      "stateMutability": "nonpayable",
      "type": "function"
    },
    {
      "inputs": [
        {
          "internalType": "address",
          "name": "owner",
          "type": "address"
        }
      ],
      "name": "balanceOf",
      "outputs": [
        {
          "internalType": "uint256",
          "name": "",
          "type": "uint256"
        }
      ],
      "stateMutability": "view",
      "type": "function"
    },
    {
      "inputs": [
        {
          "internalType": "address",
          "name": "",
          "type": "address"
        }
      ],
      "name": "balances",
      "outputs": [
        {
          "internalType": "uint256",
          "name": "",
          "type": "uint256"
        }
      ],
      "stateMutability": "view",
      "type": "function"
    },
    {
      "inputs": [
        {
          "internalType": "uint256",
          "name": "tokenId",
          "type": "uint256"
        }
      ],
      "name": "getApproved",
      "outputs": [
        {
          "internalType": "address",
          "name": "",
          "type": "address"
        }
      ],
      "stateMutability": "view",
      "type": "function"
    },
    {
      "inputs": [],
      "name": "getRentedProperties",
      "outputs": [
        {
          "components": [
            {
              "internalType": "address",
              "name": "user",
              "type": "address"
            },
            {
              "internalType": "uint64",
              "name": "expires",
              "type": "uint64"
            },
            {
              "internalType": "string",
              "name": "propertyName",
              "type": "string"
            },
            {
              "internalType": "string",
              "name": "location",
              "type": "string"
            },
            {
              "internalType": "uint256",
              "name": "price",
              "type": "uint256"
            },
            {
              "internalType": "string",
              "name": "imageIPFSHash",
              "type": "string"
            },
            {
              "internalType": "uint256",
              "name": "tokenId",
              "type": "uint256"
            },
            {
              "internalType": "address",
              "name": "owner",
              "type": "address"
            }
          ],
          "internalType": "struct ERC4907.UserInfo[]",
          "name": "",
          "type": "tuple[]"
        }
      ],
      "stateMutability": "view",
      "type": "function"
    },
    {
      "inputs": [],
      "name": "getUserBalance",
      "outputs": [
        {
          "internalType": "uint256",
          "name": "",
          "type": "uint256"
        }
      ],
      "stateMutability": "view",
      "type": "function"
    },
    {
      "inputs": [],
      "name": "getUserProperties",
      "outputs": [
        {
          "components": [
            {
              "internalType": "address",
              "name": "user",
              "type": "address"
            },
            {
              "internalType": "uint64",
              "name": "expires",
              "type": "uint64"
            },
            {
              "internalType": "string",
              "name": "propertyName",
              "type": "string"
            },
            {
              "internalType": "string",
              "name": "location",
              "type": "string"
            },
            {
              "internalType": "uint256",
              "name": "price",
              "type": "uint256"
            },
            {
              "internalType": "string",
              "name": "imageIPFSHash",
              "type": "string"
            },
            {
              "internalType": "uint256",
              "name": "tokenId",
              "type": "uint256"
            },
            {
              "internalType": "address",
              "name": "owner",
              "type": "address"
            }
          ],
          "internalType": "struct ERC4907.UserInfo[]",
          "name": "",
          "type": "tuple[]"
        }
      ],
      "stateMutability": "view",
      "type": "function"
    },
    {
      "inputs": [
        {
          "internalType": "address",
          "name": "owner",
          "type": "address"
        },
        {
          "internalType": "address",
          "name": "operator",
          "type": "address"
        }
      ],
      "name": "isApprovedForAll",
      "outputs": [
        {
          "internalType": "bool",
          "name": "",
          "type": "bool"
        }
      ],
      "stateMutability": "view",
      "type": "function"
    },
    {
      "inputs": [
        {
          "internalType": "uint256",
          "name": "",
          "type": "uint256"
        }
      ],
      "name": "listedProperties",
      "outputs": [
        {
          "internalType": "address",
          "name": "user",
          "type": "address"
        },
        {
          "internalType": "uint64",
          "name": "expires",
          "type": "uint64"
        },
        {
          "internalType": "string",
          "name": "propertyName",
          "type": "string"
        },
        {
          "internalType": "string",
          "name": "location",
          "type": "string"
        },
        {
          "internalType": "uint256",
          "name": "price",
          "type": "uint256"
        },
        {
          "internalType": "string",
          "name": "imageIPFSHash",
          "type": "string"
        },
        {
          "internalType": "uint256",
          "name": "tokenId",
          "type": "uint256"
        },
        {
          "internalType": "address",
          "name": "owner",
          "type": "address"
        }
      ],
      "stateMutability": "view",
      "type": "function"
    },
    {
      "inputs": [
        {
          "internalType": "string",
          "name": "_propertyName",
          "type": "string"
        },
        {
          "internalType": "string",
          "name": "_location",
          "type": "string"
        },
        {
          "internalType": "uint256",
          "name": "_price",
          "type": "uint256"
        },
        {
          "internalType": "string",
          "name": "_imageIPFSHash",
          "type": "string"
        }
      ],
      "name": "mint",
      "outputs": [],
      "stateMutability": "nonpayable",
      "type": "function"
    },
    {
      "inputs": [],
      "name": "name",
      "outputs": [
        {
          "internalType": "string",
          "name": "",
          "type": "string"
        }
      ],
      "stateMutability": "view",
      "type": "function"
    },
    {
      "inputs": [
        {
          "internalType": "uint256",
          "name": "tokenId",
          "type": "uint256"
        }
      ],
      "name": "ownerOf",
      "outputs": [
        {
          "internalType": "address",
          "name": "",
          "type": "address"
        }
      ],
      "stateMutability": "view",
      "type": "function"
    },
    {
      "inputs": [
        {
          "internalType": "uint256",
          "name": "tokenId",
          "type": "uint256"
        },
        {
          "internalType": "address",
          "name": "_user",
          "type": "address"
        },
        {
          "internalType": "uint64",
          "name": "expires",
          "type": "uint64"
        },
        {
          "internalType": "uint256",
          "name": "_price",
          "type": "uint256"
        }
      ],
      "name": "rentProperty",
      "outputs": [],
      "stateMutability": "nonpayable",
      "type": "function"
    },
    {
      "inputs": [
        {
          "internalType": "address",
          "name": "from",
          "type": "address"
        },
        {
          "internalType": "address",
          "name": "to",
          "type": "address"
        },
        {
          "internalType": "uint256",
          "name": "tokenId",
          "type": "uint256"
        }
      ],
      "name": "safeTransferFrom",
      "outputs": [],
      "stateMutability": "nonpayable",
      "type": "function"
    },
    {
      "inputs": [
        {
          "internalType": "address",
          "name": "from",
          "type": "address"
        },
        {
          "internalType": "address",
          "name": "to",
          "type": "address"
        },
        {
          "internalType": "uint256",
          "name": "tokenId",
          "type": "uint256"
        },
        {
          "internalType": "bytes",
          "name": "data",
          "type": "bytes"
        }
      ],
      "name": "safeTransferFrom",
      "outputs": [],
      "stateMutability": "nonpayable",
      "type": "function"
    },
    {
      "inputs": [
        {
          "internalType": "address",
          "name": "operator",
          "type": "address"
        },
        {
          "internalType": "bool",
          "name": "approved",
          "type": "bool"
        }
      ],
      "name": "setApprovalForAll",
      "outputs": [],
      "stateMutability": "nonpayable",
      "type": "function"
    },
    {
      "inputs": [
        {
          "internalType": "uint256",
          "name": "tokenId",
          "type": "uint256"
        },
        {
          "internalType": "address",
          "name": "_user",
          "type": "address"
        },
        {
          "internalType": "uint64",
          "name": "expires",
          "type": "uint64"
        }
      ],
      "name": "setUser",
      "outputs": [],
      "stateMutability": "nonpayable",
      "type": "function"
    },
    {
      "inputs": [
        {
          "internalType": "bytes4",
          "name": "interfaceId",
          "type": "bytes4"
        }
      ],
      "name": "supportsInterface",
      "outputs": [
        {
          "internalType": "bool",
          "name": "",
          "type": "bool"
        }
      ],
      "stateMutability": "view",
      "type": "function"
    },
    {
      "inputs": [],
      "name": "symbol",
      "outputs": [
        {
          "internalType": "string",
          "name": "",
          "type": "string"
        }
      ],
      "stateMutability": "view",
      "type": "function"
    },
    {
      "inputs": [],
      "name": "time",
      "outputs": [
        {
          "internalType": "uint256",
          "name": "",
          "type": "uint256"
        }
      ],
      "stateMutability": "view",
      "type": "function"
    },
    {
      "inputs": [
        {
          "internalType": "uint256",
          "name": "tokenId",
          "type": "uint256"
        }
      ],
      "name": "tokenURI",
      "outputs": [
        {
          "internalType": "string",
          "name": "",
          "type": "string"
        }
      ],
      "stateMutability": "view",
      "type": "function"
    },
    {
      "inputs": [
        {
          "internalType": "address",
          "name": "",
          "type": "address"
        }
      ],
      "name": "totalNoOfProperties",
      "outputs": [
        {
          "internalType": "uint256",
          "name": "",
          "type": "uint256"
        }
      ],
      "stateMutability": "view",
      "type": "function"
    },
    {
      "inputs": [
        {
          "internalType": "address",
          "name": "from",
          "type": "address"
        },
        {
          "internalType": "address",
          "name": "to",
          "type": "address"
        },
        {
          "internalType": "uint256",
          "name": "tokenId",
          "type": "uint256"
        }
      ],
      "name": "transferFrom",
      "outputs": [],
      "stateMutability": "nonpayable",
      "type": "function"
    },
    {
      "inputs": [
        {
          "internalType": "uint256",
          "name": "tokenId",
          "type": "uint256"
        }
      ],
      "name": "userExpires",
      "outputs": [
        {
          "internalType": "uint256",
          "name": "",
          "type": "uint256"
        }
      ],
      "stateMutability": "view",
      "type": "function"
    },
    {
      "inputs": [
        {
          "internalType": "uint256",
          "name": "tokenId",
          "type": "uint256"
        }
      ],
      "name": "userOf",
      "outputs": [
        {
          "internalType": "address",
          "name": "",
          "type": "address"
        }
      ],
      "stateMutability": "view",
      "type": "function"
    },
    {
      "inputs": [
        {
          "internalType": "address",
          "name": "",
          "type": "address"
        },
        {
          "internalType": "uint256",
          "name": "",
          "type": "uint256"
        }
      ],
      "name": "userProperties",
      "outputs": [
        {
          "internalType": "uint256",
          "name": "",
          "type": "uint256"
        }
      ],
      "stateMutability": "view",
      "type": "function"
    }
  ],
  "bytecode": "0x60806040523480156200001157600080fd5b5060405162004df738038062004df7833981810160405281019062000037919062000202565b818181600090816200004a9190620004d2565b5080600190816200005c9190620004d2565b50505060006006819055505050620005b9565b6000604051905090565b600080fd5b600080fd5b600080fd5b600080fd5b6000601f19601f8301169050919050565b7f4e487b7100000000000000000000000000000000000000000000000000000000600052604160045260246000fd5b620000d8826200008d565b810181811067ffffffffffffffff82111715620000fa57620000f96200009e565b5b80604052505050565b60006200010f6200006f565b90506200011d8282620000cd565b919050565b600067ffffffffffffffff82111562000140576200013f6200009e565b5b6200014b826200008d565b9050602081019050919050565b60005b83811015620001785780820151818401526020810190506200015b565b60008484015250505050565b60006200019b620001958462000122565b62000103565b905082815260208101848484011115620001ba57620001b962000088565b5b620001c784828562000158565b509392505050565b600082601f830112620001e757620001e662000083565b5b8151620001f984826020860162000184565b91505092915050565b600080604083850312156200021c576200021b62000079565b5b600083015167ffffffffffffffff8111156200023d576200023c6200007e565b5b6200024b85828601620001cf565b925050602083015167ffffffffffffffff8111156200026f576200026e6200007e565b5b6200027d85828601620001cf565b9150509250929050565b600081519050919050565b7f4e487b7100000000000000000000000000000000000000000000000000000000600052602260045260246000fd5b60006002820490506001821680620002da57607f821691505b602082108103620002f057620002ef62000292565b5b50919050565b60008190508160005260206000209050919050565b60006020601f8301049050919050565b600082821b905092915050565b6000600883026200035a7fffffffffffffffffffffffffffffffffffffffffffffffffffffffffffffffff826200031b565b6200036686836200031b565b95508019841693508086168417925050509392505050565b6000819050919050565b6000819050919050565b6000620003b3620003ad620003a7846200037e565b62000388565b6200037e565b9050919050565b6000819050919050565b620003cf8362000392565b620003e7620003de82620003ba565b84845462000328565b825550505050565b600090565b620003fe620003ef565b6200040b818484620003c4565b505050565b5b81811015620004335762000427600082620003f4565b60018101905062000411565b5050565b601f82111562000482576200044c81620002f6565b62000457846200030b565b8101602085101562000467578190505b6200047f62000476856200030b565b83018262000410565b50505b505050565b600082821c905092915050565b6000620004a76000198460080262000487565b1980831691505092915050565b6000620004c2838362000494565b9150826002028217905092915050565b620004dd8262000287565b67ffffffffffffffff811115620004f957620004f86200009e565b5b620005058254620002c1565b6200051282828562000437565b600060209050601f8311600181146200054a576000841562000535578287015190505b620005418582620004b4565b865550620005b1565b601f1984166200055a86620002f6565b60005b8281101562000584578489015182556001820191506020850194506020810190506200055d565b86831015620005a45784890151620005a0601f89168262000494565b8355505b6001600288020188555050505b505050505050565b61482e80620005c96000396000f3fe608060405234801561001057600080fd5b50600436106101a95760003560e01c80638c7929f5116100f9578063c2f1f14a11610097578063e030565e11610071578063e030565e1461050d578063e2271c9f14610529578063e53e958414610559578063e985e9c514610577576101a9565b8063c2f1f14a1461047d578063c87b56dd146104ad578063d30fbf70146104dd576101a9565b8063a22cb465116100d3578063a22cb46514610409578063a46f14e814610425578063b7013dc114610443578063b88d4fde14610461576101a9565b80638c7929f5146103845780638fc88c48146103bb57806395d89b41146103eb576101a9565b806323b872dd1161016657806342842e0e1161014057806342842e0e146102ea5780635d09be60146103065780636352211e1461032457806370a0823114610354576101a9565b806323b872dd146102825780632660d5141461029e57806327e235e3146102ba576101a9565b806301012072146101ae57806301ffc9a7146101ca57806306fdde03146101fa578063081812fc14610218578063095ea7b31461024857806316ada54714610264575b600080fd5b6101c860048036038101906101c39190613292565b6105a7565b005b6101e460048036038101906101df91906133a5565b61095b565b6040516101f191906133ed565b60405180910390f35b6102026109d5565b60405161020f9190613487565b60405180910390f35b610232600480360381019061022d91906134a9565b610a67565b60405161023f9190613517565b60405180910390f35b610262600480360381019061025d919061355e565b610a83565b005b61026c610a99565b60405161027991906135ad565b60405180910390f35b61029c600480360381019061029791906135c8565b610aa1565b005b6102b860048036038101906102b3919061365b565b610ba3565b005b6102d460048036038101906102cf91906136c2565b610dd2565b6040516102e191906135ad565b60405180910390f35b61030460048036038101906102ff91906135c8565b610dea565b005b61030e610e0a565b60405161031b91906138e6565b60405180910390f35b61033e600480360381019061033991906134a9565b611248565b60405161034b9190613517565b60405180910390f35b61036e600480360381019061036991906136c2565b61125a565b60405161037b91906135ad565b60405180910390f35b61039e600480360381019061039991906134a9565b611314565b6040516103b2989796959493929190613917565b60405180910390f35b6103d560048036038101906103d091906134a9565b611548565b6040516103e291906135ad565b60405180910390f35b6103f36115ea565b6040516104009190613487565b60405180910390f35b610423600480360381019061041e91906139d6565b61167c565b005b61042d611692565b60405161043a91906138e6565b60405180910390f35b61044b611ab8565b60405161045891906135ad565b60405180910390f35b61047b60048036038101906104769190613ab7565b611aff565b005b610497600480360381019061049291906134a9565b611b1c565b6040516104a49190613517565b60405180910390f35b6104c760048036038101906104c291906134a9565b611ba8565b6040516104d49190613487565b60405180910390f35b6104f760048036038101906104f291906136c2565b611c11565b60405161050491906135ad565b60405180910390f35b61052760048036038101906105229190613b3a565b611c29565b005b610543600480360381019061053e919061355e565b611d03565b60405161055091906135ad565b60405180910390f35b610561611d34565b60405161056e91906138e6565b60405180910390f35b610591600480360381019061058c9190613b8d565b6121d0565b60405161059e91906133ed565b60405180910390f35b60006006549050600660008154809291906105c190613bfc565b9190505550604051806101000160405280600073ffffffffffffffffffffffffffffffffffffffff168152602001600067ffffffffffffffff1681526020018681526020018581526020018481526020018381526020018281526020013373ffffffffffffffffffffffffffffffffffffffff168152506007600083815260200190815260200160002060008201518160000160006101000a81548173ffffffffffffffffffffffffffffffffffffffff021916908373ffffffffffffffffffffffffffffffffffffffff16021790555060208201518160000160146101000a81548167ffffffffffffffff021916908367ffffffffffffffff16021790555060408201518160010190816106d69190613e50565b5060608201518160020190816106ec9190613e50565b506080820151816003015560a082015181600401908161070c9190613e50565b5060c0820151816005015560e08201518160060160006101000a81548173ffffffffffffffffffffffffffffffffffffffff021916908373ffffffffffffffffffffffffffffffffffffffff160217905550905050600860003373ffffffffffffffffffffffffffffffffffffffff1673ffffffffffffffffffffffffffffffffffffffff168152602001908152602001600020819080600181540180825580915050600190039060005260206000200160009091909190915055600960003373ffffffffffffffffffffffffffffffffffffffff1673ffffffffffffffffffffffffffffffffffffffff168152602001908152602001600020600081548092919061081790613bfc565b91905055506108263382612264565b73b3971bcef2d791bc4027bbfedfb47319a4aaaaaa73ffffffffffffffffffffffffffffffffffffffff1663ba3d69d77350b040ac046e66a91d3b0db103e025131e29ade93388888860405160200161088193929190614089565b6040516020818303038152906040526040516020016108a09190614256565b6040516020818303038152906040526040518463ffffffff1660e01b81526004016108cd939291906142f9565b600060405180830381600087803b1580156108e757600080fd5b505af11580156108fb573d6000803e3d6000fd5b505050503373ffffffffffffffffffffffffffffffffffffffff16817f4d51393837a57b673919bff7255423cbd8f5dff4e6bb6f0dcbc37f586dafc46c8787868860405161094c9493929190614337565b60405180910390a35050505050565b60007fad092b5c000000000000000000000000000000000000000000000000000000007bffffffffffffffffffffffffffffffffffffffffffffffffffffffff1916827bffffffffffffffffffffffffffffffffffffffffffffffffffffffff191614806109ce57506109cd8261235d565b5b9050919050565b6060600080546109e490613c73565b80601f0160208091040260200160405190810160405280929190818152602001828054610a1090613c73565b8015610a5d5780601f10610a3257610100808354040283529160200191610a5d565b820191906000526020600020905b815481529060010190602001808311610a4057829003601f168201915b5050505050905090565b6000610a728261243f565b50610a7c826124c7565b9050919050565b610a958282610a90612504565b61250c565b5050565b600042905090565b600073ffffffffffffffffffffffffffffffffffffffff168273ffffffffffffffffffffffffffffffffffffffff1603610b135760006040517f64a0ae92000000000000000000000000000000000000000000000000000000008152600401610b0a9190613517565b60405180910390fd5b6000610b278383610b22612504565b61251e565b90508373ffffffffffffffffffffffffffffffffffffffff168173ffffffffffffffffffffffffffffffffffffffff1614610b9d578382826040517f64283d7b000000000000000000000000000000000000000000000000000000008152600401610b9493929190614391565b60405180910390fd5b50505050565b60076000858152602001908152602001600020600301548114610bfb576040517f08c379a0000000000000000000000000000000000000000000000000000000008152600401610bf29061443a565b60405180910390fd5b610c06848484611c29565b80600a6000610c1487611248565b73ffffffffffffffffffffffffffffffffffffffff1673ffffffffffffffffffffffffffffffffffffffff1681526020019081526020016000206000828254610c5d919061445a565b9250508190555073b3971bcef2d791bc4027bbfedfb47319a4aaaaaa73ffffffffffffffffffffffffffffffffffffffff1663ba3d69d77350b040ac046e66a91d3b0db103e025131e29ade93360076000898152602001908152602001600020600101600760008a8152602001908152602001600020600201600760008b815260200190815260200160002060030154604051602001610cff9392919061455d565b604051602081830303815290604052604051602001610d1e91906145ff565b6040516020818303038152906040526040518463ffffffff1660e01b8152600401610d4b939291906142f9565b600060405180830381600087803b158015610d6557600080fd5b505af1158015610d79573d6000803e3d6000fd5b505050508273ffffffffffffffffffffffffffffffffffffffff16847fddf30198c8f217b33732c1d9c4f25fef5319d97880bd3b5f777aad155eb6659984604051610dc49190614689565b60405180910390a350505050565b600a6020528060005260406000206000915090505481565b610e0583838360405180602001604052806000815250611aff565b505050565b60606000600960003373ffffffffffffffffffffffffffffffffffffffff1673ffffffffffffffffffffffffffffffffffffffff1681526020019081526020016000205467ffffffffffffffff811115610e6757610e66613131565b5b604051908082528060200260200182016040528015610ea057816020015b610e8d613087565b815260200190600190039081610e855790505b50905060005b600960003373ffffffffffffffffffffffffffffffffffffffff1673ffffffffffffffffffffffffffffffffffffffff168152602001908152602001600020548110156112405760076000600860003373ffffffffffffffffffffffffffffffffffffffff1673ffffffffffffffffffffffffffffffffffffffff1681526020019081526020016000208381548110610f4257610f416146a4565b5b90600052602060002001548152602001908152602001600020604051806101000160405290816000820160009054906101000a900473ffffffffffffffffffffffffffffffffffffffff1673ffffffffffffffffffffffffffffffffffffffff1673ffffffffffffffffffffffffffffffffffffffff1681526020016000820160149054906101000a900467ffffffffffffffff1667ffffffffffffffff1667ffffffffffffffff168152602001600182018054610fff90613c73565b80601f016020809104026020016040519081016040528092919081815260200182805461102b90613c73565b80156110785780601f1061104d57610100808354040283529160200191611078565b820191906000526020600020905b81548152906001019060200180831161105b57829003601f168201915b5050505050815260200160028201805461109190613c73565b80601f01602080910402602001604051908101604052809291908181526020018280546110bd90613c73565b801561110a5780601f106110df5761010080835404028352916020019161110a565b820191906000526020600020905b8154815290600101906020018083116110ed57829003601f168201915b505050505081526020016003820154815260200160048201805461112d90613c73565b80601f016020809104026020016040519081016040528092919081815260200182805461115990613c73565b80156111a65780601f1061117b576101008083540402835291602001916111a6565b820191906000526020600020905b81548152906001019060200180831161118957829003601f168201915b50505050508152602001600582015481526020016006820160009054906101000a900473ffffffffffffffffffffffffffffffffffffffff1673ffffffffffffffffffffffffffffffffffffffff1673ffffffffffffffffffffffffffffffffffffffff1681525050828281518110611222576112216146a4565b5b6020026020010181905250808061123890613bfc565b915050610ea6565b508091505090565b60006112538261243f565b9050919050565b60008073ffffffffffffffffffffffffffffffffffffffff168273ffffffffffffffffffffffffffffffffffffffff16036112cd5760006040517f89c62b640000000000000000000000000000000000000000000000000000000081526004016112c49190613517565b60405180910390fd5b600360008373ffffffffffffffffffffffffffffffffffffffff1673ffffffffffffffffffffffffffffffffffffffff168152602001908152602001600020549050919050565b60076020528060005260406000206000915090508060000160009054906101000a900473ffffffffffffffffffffffffffffffffffffffff16908060000160149054906101000a900467ffffffffffffffff169080600101805461137790613c73565b80601f01602080910402602001604051908101604052809291908181526020018280546113a390613c73565b80156113f05780601f106113c5576101008083540402835291602001916113f0565b820191906000526020600020905b8154815290600101906020018083116113d357829003601f168201915b50505050509080600201805461140590613c73565b80601f016020809104026020016040519081016040528092919081815260200182805461143190613c73565b801561147e5780601f106114535761010080835404028352916020019161147e565b820191906000526020600020905b81548152906001019060200180831161146157829003601f168201915b50505050509080600301549080600401805461149990613c73565b80601f01602080910402602001604051908101604052809291908181526020018280546114c590613c73565b80156115125780601f106114e757610100808354040283529160200191611512565b820191906000526020600020905b8154815290600101906020018083116114f557829003601f168201915b5050505050908060050154908060060160009054906101000a900473ffffffffffffffffffffffffffffffffffffffff16905088565b6000426007600084815260200190815260200160002060000160149054906101000a900467ffffffffffffffff1667ffffffffffffffff16106115c1576007600083815260200190815260200160002060000160149054906101000a900467ffffffffffffffff1667ffffffffffffffff1690506115e5565b7fffffffffffffffffffffffffffffffffffffffffffffffffffffffffffffffff90505b919050565b6060600180546115f990613c73565b80601f016020809104026020016040519081016040528092919081815260200182805461162590613c73565b80156116725780601f1061164757610100808354040283529160200191611672565b820191906000526020600020905b81548152906001019060200180831161165557829003601f168201915b5050505050905090565b61168e611687612504565b8383612738565b5050565b6060600060065490506000805b8281101561170557426007600083815260200190815260200160002060000160149054906101000a900467ffffffffffffffff1667ffffffffffffffff1610156116f25781806116ee90613bfc565b9250505b80806116fd90613bfc565b91505061169f565b5060008167ffffffffffffffff81111561172257611721613131565b5b60405190808252806020026020018201604052801561175b57816020015b611748613087565b8152602001906001900390816117405790505b5090506000805b84811015611aad57426007600083815260200190815260200160002060000160149054906101000a900467ffffffffffffffff1667ffffffffffffffff161015611a9a5760076000828152602001908152602001600020604051806101000160405290816000820160009054906101000a900473ffffffffffffffffffffffffffffffffffffffff1673ffffffffffffffffffffffffffffffffffffffff1673ffffffffffffffffffffffffffffffffffffffff1681526020016000820160149054906101000a900467ffffffffffffffff1667ffffffffffffffff1667ffffffffffffffff16815260200160018201805461185d90613c73565b80601f016020809104026020016040519081016040528092919081815260200182805461188990613c73565b80156118d65780601f106118ab576101008083540402835291602001916118d6565b820191906000526020600020905b8154815290600101906020018083116118b957829003601f168201915b505050505081526020016002820180546118ef90613c73565b80601f016020809104026020016040519081016040528092919081815260200182805461191b90613c73565b80156119685780601f1061193d57610100808354040283529160200191611968565b820191906000526020600020905b81548152906001019060200180831161194b57829003601f168201915b505050505081526020016003820154815260200160048201805461198b90613c73565b80601f01602080910402602001604051908101604052809291908181526020018280546119b790613c73565b8015611a045780601f106119d957610100808354040283529160200191611a04565b820191906000526020600020905b8154815290600101906020018083116119e757829003601f168201915b50505050508152602001600582015481526020016006820160009054906101000a900473ffffffffffffffffffffffffffffffffffffffff1673ffffffffffffffffffffffffffffffffffffffff1673ffffffffffffffffffffffffffffffffffffffff1681525050838381518110611a8057611a7f6146a4565b5b60200260200101819052508180611a9690613bfc565b9250505b8080611aa590613bfc565b915050611762565b508194505050505090565b6000600a60003373ffffffffffffffffffffffffffffffffffffffff1673ffffffffffffffffffffffffffffffffffffffff16815260200190815260200160002054905090565b611b0a848484610aa1565b611b16848484846128a7565b50505050565b6000426007600084815260200190815260200160002060000160149054906101000a900467ffffffffffffffff1667ffffffffffffffff1610611b97576007600083815260200190815260200160002060000160009054906101000a900473ffffffffffffffffffffffffffffffffffffffff169050611ba3565b611ba082611248565b90505b919050565b6060611bb38261243f565b506000611bbe612a5e565b90506000815111611bde5760405180602001604052806000815250611c09565b80611be884612a75565b604051602001611bf99291906146d3565b6040516020818303038152906040525b915050919050565b60096020528060005260406000206000915090505481565b6000600760008581526020019081526020016000209050828160000160006101000a81548173ffffffffffffffffffffffffffffffffffffffff021916908373ffffffffffffffffffffffffffffffffffffffff160217905550818160000160146101000a81548167ffffffffffffffff021916908367ffffffffffffffff1602179055508273ffffffffffffffffffffffffffffffffffffffff16847f4e06b4e7000e659094299b3533b47b6aa8ad048e95e872d23d1f4ee55af89cfe84604051611cf591906146f7565b60405180910390a350505050565b60086020528160005260406000208181548110611d1f57600080fd5b90600052602060002001600091509150505481565b6060600060065490506000805b82811015611de257426007600083815260200190815260200160002060000160149054906101000a900467ffffffffffffffff1667ffffffffffffffff1610611dcf57611d8d81611b1c565b73ffffffffffffffffffffffffffffffffffffffff163373ffffffffffffffffffffffffffffffffffffffff1603611dce578180611dca90613bfc565b9250505b5b8080611dda90613bfc565b915050611d41565b5060008167ffffffffffffffff811115611dff57611dfe613131565b5b604051908082528060200260200182016040528015611e3857816020015b611e25613087565b815260200190600190039081611e1d5790505b5090506000805b848110156121c557426007600083815260200190815260200160002060000160149054906101000a900467ffffffffffffffff1667ffffffffffffffff16106121b257611e8b81611b1c565b73ffffffffffffffffffffffffffffffffffffffff163373ffffffffffffffffffffffffffffffffffffffff16036121b15760076000828152602001908152602001600020604051806101000160405290816000820160009054906101000a900473ffffffffffffffffffffffffffffffffffffffff1673ffffffffffffffffffffffffffffffffffffffff1673ffffffffffffffffffffffffffffffffffffffff1681526020016000820160149054906101000a900467ffffffffffffffff1667ffffffffffffffff1667ffffffffffffffff168152602001600182018054611f7490613c73565b80601f0160208091040260200160405190810160405280929190818152602001828054611fa090613c73565b8015611fed5780601f10611fc257610100808354040283529160200191611fed565b820191906000526020600020905b815481529060010190602001808311611fd057829003601f168201915b5050505050815260200160028201805461200690613c73565b80601f016020809104026020016040519081016040528092919081815260200182805461203290613c73565b801561207f5780601f106120545761010080835404028352916020019161207f565b820191906000526020600020905b81548152906001019060200180831161206257829003601f168201915b50505050508152602001600382015481526020016004820180546120a290613c73565b80601f01602080910402602001604051908101604052809291908181526020018280546120ce90613c73565b801561211b5780601f106120f05761010080835404028352916020019161211b565b820191906000526020600020905b8154815290600101906020018083116120fe57829003601f168201915b50505050508152602001600582015481526020016006820160009054906101000a900473ffffffffffffffffffffffffffffffffffffffff1673ffffffffffffffffffffffffffffffffffffffff1673ffffffffffffffffffffffffffffffffffffffff1681525050838381518110612197576121966146a4565b5b602002602001018190525081806121ad90613bfc565b9250505b5b80806121bd90613bfc565b915050611e3f565b508194505050505090565b6000600560008473ffffffffffffffffffffffffffffffffffffffff1673ffffffffffffffffffffffffffffffffffffffff16815260200190815260200160002060008373ffffffffffffffffffffffffffffffffffffffff1673ffffffffffffffffffffffffffffffffffffffff16815260200190815260200160002060009054906101000a900460ff16905092915050565b600073ffffffffffffffffffffffffffffffffffffffff168273ffffffffffffffffffffffffffffffffffffffff16036122d65760006040517f64a0ae920000000000000000000000000000000000000000000000000000000081526004016122cd9190613517565b60405180910390fd5b60006122e48383600061251e565b9050600073ffffffffffffffffffffffffffffffffffffffff168173ffffffffffffffffffffffffffffffffffffffff16146123585760006040517f73c6ac6e00000000000000000000000000000000000000000000000000000000815260040161234f9190613517565b60405180910390fd5b505050565b60007f80ac58cd000000000000000000000000000000000000000000000000000000007bffffffffffffffffffffffffffffffffffffffffffffffffffffffff1916827bffffffffffffffffffffffffffffffffffffffffffffffffffffffff1916148061242857507f5b5e139f000000000000000000000000000000000000000000000000000000007bffffffffffffffffffffffffffffffffffffffffffffffffffffffff1916827bffffffffffffffffffffffffffffffffffffffffffffffffffffffff1916145b80612438575061243782612b43565b5b9050919050565b60008061244b83612bad565b9050600073ffffffffffffffffffffffffffffffffffffffff168173ffffffffffffffffffffffffffffffffffffffff16036124be57826040517f7e2732890000000000000000000000000000000000000000000000000000000081526004016124b591906135ad565b60405180910390fd5b80915050919050565b60006004600083815260200190815260200160002060009054906101000a900473ffffffffffffffffffffffffffffffffffffffff169050919050565b600033905090565b6125198383836001612bea565b505050565b60008061252a84612bad565b9050600073ffffffffffffffffffffffffffffffffffffffff168373ffffffffffffffffffffffffffffffffffffffff161461256c5761256b818486612daf565b5b600073ffffffffffffffffffffffffffffffffffffffff168173ffffffffffffffffffffffffffffffffffffffff16146125fd576125ae600085600080612bea565b6001600360008373ffffffffffffffffffffffffffffffffffffffff1673ffffffffffffffffffffffffffffffffffffffff168152602001908152602001600020600082825403925050819055505b600073ffffffffffffffffffffffffffffffffffffffff168573ffffffffffffffffffffffffffffffffffffffff1614612680576001600360008773ffffffffffffffffffffffffffffffffffffffff1673ffffffffffffffffffffffffffffffffffffffff168152602001908152602001600020600082825401925050819055505b846002600086815260200190815260200160002060006101000a81548173ffffffffffffffffffffffffffffffffffffffff021916908373ffffffffffffffffffffffffffffffffffffffff160217905550838573ffffffffffffffffffffffffffffffffffffffff168273ffffffffffffffffffffffffffffffffffffffff167fddf252ad1be2c89b69c2b068fc378daa952ba7f163c4a11628f55a4df523b3ef60405160405180910390a4809150509392505050565b600073ffffffffffffffffffffffffffffffffffffffff168273ffffffffffffffffffffffffffffffffffffffff16036127a957816040517f5b08ba180000000000000000000000000000000000000000000000000000000081526004016127a09190613517565b60405180910390fd5b80600560008573ffffffffffffffffffffffffffffffffffffffff1673ffffffffffffffffffffffffffffffffffffffff16815260200190815260200160002060008473ffffffffffffffffffffffffffffffffffffffff1673ffffffffffffffffffffffffffffffffffffffff16815260200190815260200160002060006101000a81548160ff0219169083151502179055508173ffffffffffffffffffffffffffffffffffffffff168373ffffffffffffffffffffffffffffffffffffffff167f17307eab39ab6107e8899845ad3d59bd9653f200f220920489ca2b5937696c318360405161289a91906133ed565b60405180910390a3505050565b60008373ffffffffffffffffffffffffffffffffffffffff163b1115612a58578273ffffffffffffffffffffffffffffffffffffffff1663150b7a026128eb612504565b8685856040518563ffffffff1660e01b815260040161290d9493929190614712565b6020604051808303816000875af192505050801561294957506040513d601f19601f820116820180604052508101906129469190614773565b60015b6129cd573d8060008114612979576040519150601f19603f3d011682016040523d82523d6000602084013e61297e565b606091505b5060008151036129c557836040517f64a0ae920000000000000000000000000000000000000000000000000000000081526004016129bc9190613517565b60405180910390fd5b805181602001fd5b63150b7a0260e01b7bffffffffffffffffffffffffffffffffffffffffffffffffffffffff1916817bffffffffffffffffffffffffffffffffffffffffffffffffffffffff191614612a5657836040517f64a0ae92000000000000000000000000000000000000000000000000000000008152600401612a4d9190613517565b60405180910390fd5b505b50505050565b606060405180602001604052806000815250905090565b606060006001612a8484612e73565b01905060008167ffffffffffffffff811115612aa357612aa2613131565b5b6040519080825280601f01601f191660200182016040528015612ad55781602001600182028036833780820191505090505b509050600082602001820190505b600115612b38578080600190039150507f3031323334353637383961626364656600000000000000000000000000000000600a86061a8153600a8581612b2c57612b2b6147a0565b5b04945060008503612ae3575b819350505050919050565b60007f01ffc9a7000000000000000000000000000000000000000000000000000000007bffffffffffffffffffffffffffffffffffffffffffffffffffffffff1916827bffffffffffffffffffffffffffffffffffffffffffffffffffffffff1916149050919050565b60006002600083815260200190815260200160002060009054906101000a900473ffffffffffffffffffffffffffffffffffffffff169050919050565b8080612c235750600073ffffffffffffffffffffffffffffffffffffffff168273ffffffffffffffffffffffffffffffffffffffff1614155b15612d57576000612c338461243f565b9050600073ffffffffffffffffffffffffffffffffffffffff168373ffffffffffffffffffffffffffffffffffffffff1614158015612c9e57508273ffffffffffffffffffffffffffffffffffffffff168173ffffffffffffffffffffffffffffffffffffffff1614155b8015612cb15750612caf81846121d0565b155b15612cf357826040517fa9fbf51f000000000000000000000000000000000000000000000000000000008152600401612cea9190613517565b60405180910390fd5b8115612d5557838573ffffffffffffffffffffffffffffffffffffffff168273ffffffffffffffffffffffffffffffffffffffff167f8c5be1e5ebec7d5bd14f71427d1e84f3dd0314c0f7b2291e5b200ac8c7c3b92560405160405180910390a45b505b836004600085815260200190815260200160002060006101000a81548173ffffffffffffffffffffffffffffffffffffffff021916908373ffffffffffffffffffffffffffffffffffffffff16021790555050505050565b612dba838383612fc6565b612e6e57600073ffffffffffffffffffffffffffffffffffffffff168373ffffffffffffffffffffffffffffffffffffffff1603612e2f57806040517f7e273289000000000000000000000000000000000000000000000000000000008152600401612e2691906135ad565b60405180910390fd5b81816040517f177e802f000000000000000000000000000000000000000000000000000000008152600401612e659291906147cf565b60405180910390fd5b505050565b600080600090507a184f03e93ff9f4daa797ed6e38ed64bf6a1f0100000000000000008310612ed1577a184f03e93ff9f4daa797ed6e38ed64bf6a1f0100000000000000008381612ec757612ec66147a0565b5b0492506040810190505b6d04ee2d6d415b85acef81000000008310612f0e576d04ee2d6d415b85acef81000000008381612f0457612f036147a0565b5b0492506020810190505b662386f26fc100008310612f3d57662386f26fc100008381612f3357612f326147a0565b5b0492506010810190505b6305f5e1008310612f66576305f5e1008381612f5c57612f5b6147a0565b5b0492506008810190505b6127108310612f8b576127108381612f8157612f806147a0565b5b0492506004810190505b60648310612fae5760648381612fa457612fa36147a0565b5b0492506002810190505b600a8310612fbd576001810190505b80915050919050565b60008073ffffffffffffffffffffffffffffffffffffffff168373ffffffffffffffffffffffffffffffffffffffff161415801561307e57508273ffffffffffffffffffffffffffffffffffffffff168473ffffffffffffffffffffffffffffffffffffffff16148061303f575061303e84846121d0565b5b8061307d57508273ffffffffffffffffffffffffffffffffffffffff16613065836124c7565b73ffffffffffffffffffffffffffffffffffffffff16145b5b90509392505050565b604051806101000160405280600073ffffffffffffffffffffffffffffffffffffffff168152602001600067ffffffffffffffff1681526020016060815260200160608152602001600081526020016060815260200160008152602001600073ffffffffffffffffffffffffffffffffffffffff1681525090565b6000604051905090565b600080fd5b600080fd5b600080fd5b600080fd5b6000601f19601f8301169050919050565b7f4e487b7100000000000000000000000000000000000000000000000000000000600052604160045260246000fd5b61316982613120565b810181811067ffffffffffffffff8211171561318857613187613131565b5b80604052505050565b600061319b613102565b90506131a78282613160565b919050565b600067ffffffffffffffff8211156131c7576131c6613131565b5b6131d082613120565b9050602081019050919050565b82818337600083830152505050565b60006131ff6131fa846131ac565b613191565b90508281526020810184848401111561321b5761321a61311b565b5b6132268482856131dd565b509392505050565b600082601f83011261324357613242613116565b5b81356132538482602086016131ec565b91505092915050565b6000819050919050565b61326f8161325c565b811461327a57600080fd5b50565b60008135905061328c81613266565b92915050565b600080600080608085870312156132ac576132ab61310c565b5b600085013567ffffffffffffffff8111156132ca576132c9613111565b5b6132d68782880161322e565b945050602085013567ffffffffffffffff8111156132f7576132f6613111565b5b6133038782880161322e565b93505060406133148782880161327d565b925050606085013567ffffffffffffffff81111561333557613334613111565b5b6133418782880161322e565b91505092959194509250565b60007fffffffff0000000000000000000000000000000000000000000000000000000082169050919050565b6133828161334d565b811461338d57600080fd5b50565b60008135905061339f81613379565b92915050565b6000602082840312156133bb576133ba61310c565b5b60006133c984828501613390565b91505092915050565b60008115159050919050565b6133e7816133d2565b82525050565b600060208201905061340260008301846133de565b92915050565b600081519050919050565b600082825260208201905092915050565b60005b83811015613442578082015181840152602081019050613427565b60008484015250505050565b600061345982613408565b6134638185613413565b9350613473818560208601613424565b61347c81613120565b840191505092915050565b600060208201905081810360008301526134a1818461344e565b905092915050565b6000602082840312156134bf576134be61310c565b5b60006134cd8482850161327d565b91505092915050565b600073ffffffffffffffffffffffffffffffffffffffff82169050919050565b6000613501826134d6565b9050919050565b613511816134f6565b82525050565b600060208201905061352c6000830184613508565b92915050565b61353b816134f6565b811461354657600080fd5b50565b60008135905061355881613532565b92915050565b600080604083850312156135755761357461310c565b5b600061358385828601613549565b92505060206135948582860161327d565b9150509250929050565b6135a78161325c565b82525050565b60006020820190506135c2600083018461359e565b92915050565b6000806000606084860312156135e1576135e061310c565b5b60006135ef86828701613549565b935050602061360086828701613549565b92505060406136118682870161327d565b9150509250925092565b600067ffffffffffffffff82169050919050565b6136388161361b565b811461364357600080fd5b50565b6000813590506136558161362f565b92915050565b600080600080608085870312156136755761367461310c565b5b60006136838782880161327d565b945050602061369487828801613549565b93505060406136a587828801613646565b92505060606136b68782880161327d565b91505092959194509250565b6000602082840312156136d8576136d761310c565b5b60006136e684828501613549565b91505092915050565b600081519050919050565b600082825260208201905092915050565b6000819050602082019050919050565b613724816134f6565b82525050565b6137338161361b565b82525050565b600082825260208201905092915050565b600061375582613408565b61375f8185613739565b935061376f818560208601613424565b61377881613120565b840191505092915050565b61378c8161325c565b82525050565b6000610100830160008301516137ab600086018261371b565b5060208301516137be602086018261372a565b50604083015184820360408601526137d6828261374a565b915050606083015184820360608601526137f0828261374a565b91505060808301516138056080860182613783565b5060a083015184820360a086015261381d828261374a565b91505060c083015161383260c0860182613783565b5060e083015161384560e086018261371b565b508091505092915050565b600061385c8383613792565b905092915050565b6000602082019050919050565b600061387c826136ef565b61388681856136fa565b9350836020820285016138988561370b565b8060005b858110156138d457848403895281516138b58582613850565b94506138c083613864565b925060208a0199505060018101905061389c565b50829750879550505050505092915050565b600060208201905081810360008301526139008184613871565b905092915050565b6139118161361b565b82525050565b60006101008201905061392d600083018b613508565b61393a602083018a613908565b818103604083015261394c818961344e565b90508181036060830152613960818861344e565b905061396f608083018761359e565b81810360a0830152613981818661344e565b905061399060c083018561359e565b61399d60e0830184613508565b9998505050505050505050565b6139b3816133d2565b81146139be57600080fd5b50565b6000813590506139d0816139aa565b92915050565b600080604083850312156139ed576139ec61310c565b5b60006139fb85828601613549565b9250506020613a0c858286016139c1565b9150509250929050565b600067ffffffffffffffff821115613a3157613a30613131565b5b613a3a82613120565b9050602081019050919050565b6000613a5a613a5584613a16565b613191565b905082815260208101848484011115613a7657613a7561311b565b5b613a818482856131dd565b509392505050565b600082601f830112613a9e57613a9d613116565b5b8135613aae848260208601613a47565b91505092915050565b60008060008060808587031215613ad157613ad061310c565b5b6000613adf87828801613549565b9450506020613af087828801613549565b9350506040613b018782880161327d565b925050606085013567ffffffffffffffff811115613b2257613b21613111565b5b613b2e87828801613a89565b91505092959194509250565b600080600060608486031215613b5357613b5261310c565b5b6000613b618682870161327d565b9350506020613b7286828701613549565b9250506040613b8386828701613646565b9150509250925092565b60008060408385031215613ba457613ba361310c565b5b6000613bb285828601613549565b9250506020613bc385828601613549565b9150509250929050565b7f4e487b7100000000000000000000000000000000000000000000000000000000600052601160045260246000fd5b6000613c078261325c565b91507fffffffffffffffffffffffffffffffffffffffffffffffffffffffffffffffff8203613c3957613c38613bcd565b5b600182019050919050565b7f4e487b7100000000000000000000000000000000000000000000000000000000600052602260045260246000fd5b60006002820490506001821680613c8b57607f821691505b602082108103613c9e57613c9d613c44565b5b50919050565b60008190508160005260206000209050919050565b60006020601f8301049050919050565b600082821b905092915050565b600060088302613d067fffffffffffffffffffffffffffffffffffffffffffffffffffffffffffffffff82613cc9565b613d108683613cc9565b95508019841693508086168417925050509392505050565b6000819050919050565b6000613d4d613d48613d438461325c565b613d28565b61325c565b9050919050565b6000819050919050565b613d6783613d32565b613d7b613d7382613d54565b848454613cd6565b825550505050565b600090565b613d90613d83565b613d9b818484613d5e565b505050565b5b81811015613dbf57613db4600082613d88565b600181019050613da1565b5050565b601f821115613e0457613dd581613ca4565b613dde84613cb9565b81016020851015613ded578190505b613e01613df985613cb9565b830182613da0565b50505b505050565b600082821c905092915050565b6000613e2760001984600802613e09565b1980831691505092915050565b6000613e408383613e16565b9150826002028217905092915050565b613e5982613408565b67ffffffffffffffff811115613e7257613e71613131565b5b613e7c8254613c73565b613e87828285613dc3565b600060209050601f831160018114613eba5760008415613ea8578287015190505b613eb28582613e34565b865550613f1a565b601f198416613ec886613ca4565b60005b82811015613ef057848901518255600182019150602085019450602081019050613ecb565b86831015613f0d5784890151613f09601f891682613e16565b8355505b6001600288020188555050505b505050505050565b600081905092915050565b7f50726f70657274792052656769737465726564205375636365737366756c6c7960008201527f2000000000000000000000000000000000000000000000000000000000000000602082015250565b6000613f89602183613f22565b9150613f9482613f2d565b602182019050919050565b6000613faa82613408565b613fb48185613f22565b9350613fc4818560208601613424565b80840191505092915050565b7f2061742000000000000000000000000000000000000000000000000000000000600082015250565b6000614006600483613f22565b915061401182613fd0565b600482019050919050565b7f20666f7220000000000000000000000000000000000000000000000000000000600082015250565b6000614052600583613f22565b915061405d8261401c565b600582019050919050565b6000819050919050565b61408361407e8261325c565b614068565b82525050565b600061409482613f7c565b91506140a08286613f9f565b91506140ab82613ff9565b91506140b78285613f9f565b91506140c282614045565b91506140ce8284614072565b602082019150819050949350505050565b7f3000000000000000000000000000000000000000000000000000000000000000600082015250565b6000614115600183613f22565b9150614120826140df565b600182019050919050565b7f2b00000000000000000000000000000000000000000000000000000000000000600082015250565b6000614161600183613f22565b915061416c8261412b565b600182019050919050565b7f3300000000000000000000000000000000000000000000000000000000000000600082015250565b60006141ad600183613f22565b91506141b882614177565b600182019050919050565b7f50726f706572747920526567697374726174696f6e2053746174757300000000600082015250565b60006141f9601c83613f22565b9150614204826141c3565b601c82019050919050565b600081519050919050565b600081905092915050565b60006142308261420f565b61423a818561421a565b935061424a818560208601613424565b80840191505092915050565b600061426182614108565b915061426c82614154565b9150614277826141a0565b915061428282614154565b915061428d826141ec565b915061429882614154565b91506142a48284614225565b915081905092915050565b600082825260208201905092915050565b60006142cb8261420f565b6142d581856142af565b93506142e5818560208601613424565b6142ee81613120565b840191505092915050565b600060608201905061430e6000830186613508565b61431b6020830185613508565b818103604083015261432d81846142c0565b9050949350505050565b60006080820190508181036000830152614351818761344e565b90508181036020830152614365818661344e565b90508181036040830152614379818561344e565b9050614388606083018461359e565b95945050505050565b60006060820190506143a66000830186613508565b6143b3602083018561359e565b6143c06040830184613508565b949350505050565b7f506c65617365207061792074686520636f7272656374207072696365206f662060008201527f7468652050726f70657274790000000000000000000000000000000000000000602082015250565b6000614424602c83613413565b915061442f826143c8565b604082019050919050565b6000602082019050818103600083015261445381614417565b9050919050565b60006144658261325c565b91506144708361325c565b925082820190508082111561448857614487613bcd565b5b92915050565b7f50726f70657274792052656e746564205375636365737366756c6c7920000000600082015250565b60006144c4601d83613f22565b91506144cf8261448e565b601d82019050919050565b600081546144e781613c73565b6144f18186613f22565b9450600182166000811461450c576001811461452157614554565b60ff1983168652811515820286019350614554565b61452a85613ca4565b60005b8381101561454c5781548189015260018201915060208101905061452d565b838801955050505b50505092915050565b6000614568826144b7565b915061457482866144da565b915061457f82613ff9565b915061458b82856144da565b915061459682614045565b91506145a28284614072565b602082019150819050949350505050565b7f50726f70657274792052656e7420537461747573000000000000000000000000600082015250565b60006145e9601483613f22565b91506145f4826145b3565b601482019050919050565b600061460a82614108565b915061461582614154565b9150614620826141a0565b915061462b82614154565b9150614636826145dc565b915061464182614154565b915061464d8284614225565b915081905092915050565b600061467361466e6146698461361b565b613d28565b61325c565b9050919050565b61468381614658565b82525050565b600060208201905061469e600083018461467a565b92915050565b7f4e487b7100000000000000000000000000000000000000000000000000000000600052603260045260246000fd5b60006146df8285613f9f565b91506146eb8284613f9f565b91508190509392505050565b600060208201905061470c6000830184613908565b92915050565b60006080820190506147276000830187613508565b6147346020830186613508565b614741604083018561359e565b818103606083015261475381846142c0565b905095945050505050565b60008151905061476d81613379565b92915050565b6000602082840312156147895761478861310c565b5b60006147978482850161475e565b91505092915050565b7f4e487b7100000000000000000000000000000000000000000000000000000000600052601260045260246000fd5b60006040820190506147e46000830185613508565b6147f1602083018461359e565b939250505056fea2646970667358221220f00ea396213291be382db52e7d60f38b60d36b3534225a7c202938db49ba5cb864736f6c63430008150033",
  "linkReferences": {},
  "deployedLinkReferences": {}
}