{
  "_format": "hh-sol-artifact-1",
  "contractName": "ERC4907",
  "sourceName": "contracts/ERC4907.sol",
  "address": "0xF0e14a19936456659af8b3E5104229253da9D120",
  "abi": [
    {
      "inputs": [
        {
          "internalType": "string",
          "name": "name_",
          "type": "string"
        },
        {
          "internalType": "string",
          "name": "symbol_",
          "type": "string"
        }
      ],
      "stateMutability": "nonpayable",
      "type": "constructor"
    },
    {
      "inputs": [
        {
          "internalType": "address",
          "name": "sender",
          "type": "address"
        },
        {
          "internalType": "uint256",
          "name": "tokenId",
          "type": "uint256"
        },
        {
          "internalType": "address",
          "name": "owner",
          "type": "address"
        }
      ],
      "name": "ERC721IncorrectOwner",
      "type": "error"
    },
    {
      "inputs": [
        {
          "internalType": "address",
          "name": "operator",
          "type": "address"
        },
        {
          "internalType": "uint256",
          "name": "tokenId",
          "type": "uint256"
        }
      ],
      "name": "ERC721InsufficientApproval",
      "type": "error"
    },
    {
      "inputs": [
        {
          "internalType": "address",
          "name": "approver",
          "type": "address"
        }
      ],
      "name": "ERC721InvalidApprover",
      "type": "error"
    },
    {
      "inputs": [
        {
          "internalType": "address",
          "name": "operator",
          "type": "address"
        }
      ],
      "name": "ERC721InvalidOperator",
      "type": "error"
    },
    {
      "inputs": [
        {
          "internalType": "address",
          "name": "owner",
          "type": "address"
        }
      ],
      "name": "ERC721InvalidOwner",
      "type": "error"
    },
    {
      "inputs": [
        {
          "internalType": "address",
          "name": "receiver",
          "type": "address"
        }
      ],
      "name": "ERC721InvalidReceiver",
      "type": "error"
    },
    {
      "inputs": [
        {
          "internalType": "address",
          "name": "sender",
          "type": "address"
        }
      ],
      "name": "ERC721InvalidSender",
      "type": "error"
    },
    {
      "inputs": [
        {
          "internalType": "uint256",
          "name": "tokenId",
          "type": "uint256"
        }
      ],
      "name": "ERC721NonexistentToken",
      "type": "error"
    },
    {
      "anonymous": false,
      "inputs": [
        {
          "indexed": true,
          "internalType": "address",
          "name": "owner",
          "type": "address"
        },
        {
          "indexed": true,
          "internalType": "address",
          "name": "approved",
          "type": "address"
        },
        {
          "indexed": true,
          "internalType": "uint256",
          "name": "tokenId",
          "type": "uint256"
        }
      ],
      "name": "Approval",
      "type": "event"
    },
    {
      "anonymous": false,
      "inputs": [
        {
          "indexed": true,
          "internalType": "address",
          "name": "owner",
          "type": "address"
        },
        {
          "indexed": true,
          "internalType": "address",
          "name": "operator",
          "type": "address"
        },
        {
          "indexed": false,
          "internalType": "bool",
          "name": "approved",
          "type": "bool"
        }
      ],
      "name": "ApprovalForAll",
      "type": "event"
    },
    {
      "anonymous": false,
      "inputs": [
        {
          "indexed": true,
          "internalType": "uint256",
          "name": "tokenId",
          "type": "uint256"
        },
        {
          "indexed": true,
          "internalType": "address",
          "name": "owner",
          "type": "address"
        },
        {
          "indexed": false,
          "internalType": "string",
          "name": "name",
          "type": "string"
        },
        {
          "indexed": false,
          "internalType": "string",
          "name": "location",
          "type": "string"
        },
        {
          "indexed": false,
          "internalType": "string",
          "name": "imageIPFSHash",
          "type": "string"
        },
        {
          "indexed": false,
          "internalType": "uint256",
          "name": "price",
          "type": "uint256"
        }
      ],
      "name": "PropertyListed",
      "type": "event"
    },
    {
      "anonymous": false,
      "inputs": [
        {
          "indexed": true,
          "internalType": "uint256",
          "name": "tokenId",
          "type": "uint256"
        },
        {
          "indexed": true,
          "internalType": "address",
          "name": "user",
          "type": "address"
        },
        {
          "indexed": false,
          "internalType": "uint256",
          "name": "expires",
          "type": "uint256"
        }
      ],
      "name": "PropertyRented",
      "type": "event"
    },
    {
      "anonymous": false,
      "inputs": [
        {
          "indexed": true,
          "internalType": "address",
          "name": "from",
          "type": "address"
        },
        {
          "indexed": true,
          "internalType": "address",
          "name": "to",
          "type": "address"
        },
        {
          "indexed": true,
          "internalType": "uint256",
          "name": "tokenId",
          "type": "uint256"
        }
      ],
      "name": "Transfer",
      "type": "event"
    },
    {
      "anonymous": false,
      "inputs": [
        {
          "indexed": true,
          "internalType": "uint256",
          "name": "tokenId",
          "type": "uint256"
        },
        {
          "indexed": true,
          "internalType": "address",
          "name": "user",
          "type": "address"
        },
        {
          "indexed": false,
          "internalType": "uint64",
          "name": "expires",
          "type": "uint64"
        }
      ],
      "name": "UpdateUser",
      "type": "event"
    },
    {
      "inputs": [],
      "name": "allAvailableRentingProperties",
      "outputs": [
        {
          "components": [
            {
              "internalType": "address",
              "name": "user",
              "type": "address"
            },
            {
              "internalType": "uint64",
              "name": "expires",
              "type": "uint64"
            },
            {
              "internalType": "string",
              "name": "propertyName",
              "type": "string"
            },
            {
              "internalType": "string",
              "name": "location",
              "type": "string"
            },
            {
              "internalType": "uint256",
              "name": "price",
              "type": "uint256"
            },
            {
              "internalType": "string",
              "name": "imageIPFSHash",
              "type": "string"
            },
            {
              "internalType": "uint256",
              "name": "tokenId",
              "type": "uint256"
            },
            {
              "internalType": "address",
              "name": "owner",
              "type": "address"
            }
          ],
          "internalType": "struct ERC4907.UserInfo[]",
          "name": "",
          "type": "tuple[]"
        }
      ],
      "stateMutability": "view",
      "type": "function"
    },
    {
      "inputs": [
        {
          "internalType": "address",
          "name": "to",
          "type": "address"
        },
        {
          "internalType": "uint256",
          "name": "tokenId",
          "type": "uint256"
        }
      ],
      "name": "approve",
      "outputs": [],
      "stateMutability": "nonpayable",
      "type": "function"
    },
    {
      "inputs": [
        {
          "internalType": "address",
          "name": "owner",
          "type": "address"
        }
      ],
      "name": "balanceOf",
      "outputs": [
        {
          "internalType": "uint256",
          "name": "",
          "type": "uint256"
        }
      ],
      "stateMutability": "view",
      "type": "function"
    },
    {
      "inputs": [
        {
          "internalType": "address",
          "name": "",
          "type": "address"
        }
      ],
      "name": "balances",
      "outputs": [
        {
          "internalType": "uint256",
          "name": "",
          "type": "uint256"
        }
      ],
      "stateMutability": "view",
      "type": "function"
    },
    {
      "inputs": [
        {
          "internalType": "uint256",
          "name": "tokenId",
          "type": "uint256"
        }
      ],
      "name": "getApproved",
      "outputs": [
        {
          "internalType": "address",
          "name": "",
          "type": "address"
        }
      ],
      "stateMutability": "view",
      "type": "function"
    },
    {
      "inputs": [
        {
          "internalType": "address",
          "name": "_addr",
          "type": "address"
        }
      ],
      "name": "getRentedProperties",
      "outputs": [
        {
          "components": [
            {
              "internalType": "address",
              "name": "user",
              "type": "address"
            },
            {
              "internalType": "uint64",
              "name": "expires",
              "type": "uint64"
            },
            {
              "internalType": "string",
              "name": "propertyName",
              "type": "string"
            },
            {
              "internalType": "string",
              "name": "location",
              "type": "string"
            },
            {
              "internalType": "uint256",
              "name": "price",
              "type": "uint256"
            },
            {
              "internalType": "string",
              "name": "imageIPFSHash",
              "type": "string"
            },
            {
              "internalType": "uint256",
              "name": "tokenId",
              "type": "uint256"
            },
            {
              "internalType": "address",
              "name": "owner",
              "type": "address"
            }
          ],
          "internalType": "struct ERC4907.UserInfo[]",
          "name": "",
          "type": "tuple[]"
        }
      ],
      "stateMutability": "view",
      "type": "function"
    },
    {
      "inputs": [],
      "name": "getUserBalance",
      "outputs": [
        {
          "internalType": "uint256",
          "name": "",
          "type": "uint256"
        }
      ],
      "stateMutability": "view",
      "type": "function"
    },
    {
      "inputs": [],
      "name": "getUserProperties",
      "outputs": [
        {
          "components": [
            {
              "internalType": "address",
              "name": "user",
              "type": "address"
            },
            {
              "internalType": "uint64",
              "name": "expires",
              "type": "uint64"
            },
            {
              "internalType": "string",
              "name": "propertyName",
              "type": "string"
            },
            {
              "internalType": "string",
              "name": "location",
              "type": "string"
            },
            {
              "internalType": "uint256",
              "name": "price",
              "type": "uint256"
            },
            {
              "internalType": "string",
              "name": "imageIPFSHash",
              "type": "string"
            },
            {
              "internalType": "uint256",
              "name": "tokenId",
              "type": "uint256"
            },
            {
              "internalType": "address",
              "name": "owner",
              "type": "address"
            }
          ],
          "internalType": "struct ERC4907.UserInfo[]",
          "name": "",
          "type": "tuple[]"
        }
      ],
      "stateMutability": "view",
      "type": "function"
    },
    {
      "inputs": [
        {
          "internalType": "address",
          "name": "owner",
          "type": "address"
        },
        {
          "internalType": "address",
          "name": "operator",
          "type": "address"
        }
      ],
      "name": "isApprovedForAll",
      "outputs": [
        {
          "internalType": "bool",
          "name": "",
          "type": "bool"
        }
      ],
      "stateMutability": "view",
      "type": "function"
    },
    {
      "inputs": [
        {
          "internalType": "uint256",
          "name": "",
          "type": "uint256"
        }
      ],
      "name": "listedProperties",
      "outputs": [
        {
          "internalType": "address",
          "name": "user",
          "type": "address"
        },
        {
          "internalType": "uint64",
          "name": "expires",
          "type": "uint64"
        },
        {
          "internalType": "string",
          "name": "propertyName",
          "type": "string"
        },
        {
          "internalType": "string",
          "name": "location",
          "type": "string"
        },
        {
          "internalType": "uint256",
          "name": "price",
          "type": "uint256"
        },
        {
          "internalType": "string",
          "name": "imageIPFSHash",
          "type": "string"
        },
        {
          "internalType": "uint256",
          "name": "tokenId",
          "type": "uint256"
        },
        {
          "internalType": "address",
          "name": "owner",
          "type": "address"
        }
      ],
      "stateMutability": "view",
      "type": "function"
    },
    {
      "inputs": [
        {
          "internalType": "string",
          "name": "_propertyName",
          "type": "string"
        },
        {
          "internalType": "string",
          "name": "_location",
          "type": "string"
        },
        {
          "internalType": "uint256",
          "name": "_price",
          "type": "uint256"
        },
        {
          "internalType": "string",
          "name": "_imageIPFSHash",
          "type": "string"
        }
      ],
      "name": "mint",
      "outputs": [],
      "stateMutability": "nonpayable",
      "type": "function"
    },
    {
      "inputs": [],
      "name": "name",
      "outputs": [
        {
          "internalType": "string",
          "name": "",
          "type": "string"
        }
      ],
      "stateMutability": "view",
      "type": "function"
    },
    {
      "inputs": [
        {
          "internalType": "uint256",
          "name": "tokenId",
          "type": "uint256"
        }
      ],
      "name": "ownerOf",
      "outputs": [
        {
          "internalType": "address",
          "name": "",
          "type": "address"
        }
      ],
      "stateMutability": "view",
      "type": "function"
    },
    {
      "inputs": [
        {
          "internalType": "uint256",
          "name": "tokenId",
          "type": "uint256"
        },
        {
          "internalType": "address",
          "name": "_user",
          "type": "address"
        },
        {
          "internalType": "uint64",
          "name": "expires",
          "type": "uint64"
        },
        {
          "internalType": "uint256",
          "name": "_price",
          "type": "uint256"
        }
      ],
      "name": "rentProperty",
      "outputs": [],
      "stateMutability": "nonpayable",
      "type": "function"
    },
    {
      "inputs": [
        {
          "internalType": "address",
          "name": "from",
          "type": "address"
        },
        {
          "internalType": "address",
          "name": "to",
          "type": "address"
        },
        {
          "internalType": "uint256",
          "name": "tokenId",
          "type": "uint256"
        }
      ],
      "name": "safeTransferFrom",
      "outputs": [],
      "stateMutability": "nonpayable",
      "type": "function"
    },
    {
      "inputs": [
        {
          "internalType": "address",
          "name": "from",
          "type": "address"
        },
        {
          "internalType": "address",
          "name": "to",
          "type": "address"
        },
        {
          "internalType": "uint256",
          "name": "tokenId",
          "type": "uint256"
        },
        {
          "internalType": "bytes",
          "name": "data",
          "type": "bytes"
        }
      ],
      "name": "safeTransferFrom",
      "outputs": [],
      "stateMutability": "nonpayable",
      "type": "function"
    },
    {
      "inputs": [
        {
          "internalType": "address",
          "name": "operator",
          "type": "address"
        },
        {
          "internalType": "bool",
          "name": "approved",
          "type": "bool"
        }
      ],
      "name": "setApprovalForAll",
      "outputs": [],
      "stateMutability": "nonpayable",
      "type": "function"
    },
    {
      "inputs": [
        {
          "internalType": "uint256",
          "name": "tokenId",
          "type": "uint256"
        },
        {
          "internalType": "address",
          "name": "_user",
          "type": "address"
        },
        {
          "internalType": "uint64",
          "name": "expires",
          "type": "uint64"
        }
      ],
      "name": "setUser",
      "outputs": [],
      "stateMutability": "nonpayable",
      "type": "function"
    },
    {
      "inputs": [
        {
          "internalType": "bytes4",
          "name": "interfaceId",
          "type": "bytes4"
        }
      ],
      "name": "supportsInterface",
      "outputs": [
        {
          "internalType": "bool",
          "name": "",
          "type": "bool"
        }
      ],
      "stateMutability": "view",
      "type": "function"
    },
    {
      "inputs": [],
      "name": "symbol",
      "outputs": [
        {
          "internalType": "string",
          "name": "",
          "type": "string"
        }
      ],
      "stateMutability": "view",
      "type": "function"
    },
    {
      "inputs": [],
      "name": "time",
      "outputs": [
        {
          "internalType": "uint256",
          "name": "",
          "type": "uint256"
        }
      ],
      "stateMutability": "view",
      "type": "function"
    },
    {
      "inputs": [
        {
          "internalType": "uint256",
          "name": "tokenId",
          "type": "uint256"
        }
      ],
      "name": "tokenURI",
      "outputs": [
        {
          "internalType": "string",
          "name": "",
          "type": "string"
        }
      ],
      "stateMutability": "view",
      "type": "function"
    },
    {
      "inputs": [
        {
          "internalType": "address",
          "name": "",
          "type": "address"
        }
      ],
      "name": "totalNoOfProperties",
      "outputs": [
        {
          "internalType": "uint256",
          "name": "",
          "type": "uint256"
        }
      ],
      "stateMutability": "view",
      "type": "function"
    },
    {
      "inputs": [
        {
          "internalType": "address",
          "name": "from",
          "type": "address"
        },
        {
          "internalType": "address",
          "name": "to",
          "type": "address"
        },
        {
          "internalType": "uint256",
          "name": "tokenId",
          "type": "uint256"
        }
      ],
      "name": "transferFrom",
      "outputs": [],
      "stateMutability": "nonpayable",
      "type": "function"
    },
    {
      "inputs": [
        {
          "internalType": "uint256",
          "name": "tokenId",
          "type": "uint256"
        }
      ],
      "name": "userExpires",
      "outputs": [
        {
          "internalType": "uint256",
          "name": "",
          "type": "uint256"
        }
      ],
      "stateMutability": "view",
      "type": "function"
    },
    {
      "inputs": [
        {
          "internalType": "uint256",
          "name": "tokenId",
          "type": "uint256"
        }
      ],
      "name": "userOf",
      "outputs": [
        {
          "internalType": "address",
          "name": "",
          "type": "address"
        }
      ],
      "stateMutability": "view",
      "type": "function"
    },
    {
      "inputs": [
        {
          "internalType": "address",
          "name": "",
          "type": "address"
        },
        {
          "internalType": "uint256",
          "name": "",
          "type": "uint256"
        }
      ],
      "name": "userProperties",
      "outputs": [
        {
          "internalType": "uint256",
          "name": "",
          "type": "uint256"
        }
      ],
      "stateMutability": "view",
      "type": "function"
    }
  ],
  "bytecode": "0x60806040523480156200001157600080fd5b50604051620046cb380380620046cb833981810160405281019062000037919062000202565b818181600090816200004a9190620004d2565b5080600190816200005c9190620004d2565b50505060006006819055505050620005b9565b6000604051905090565b600080fd5b600080fd5b600080fd5b600080fd5b6000601f19601f8301169050919050565b7f4e487b7100000000000000000000000000000000000000000000000000000000600052604160045260246000fd5b620000d8826200008d565b810181811067ffffffffffffffff82111715620000fa57620000f96200009e565b5b80604052505050565b60006200010f6200006f565b90506200011d8282620000cd565b919050565b600067ffffffffffffffff82111562000140576200013f6200009e565b5b6200014b826200008d565b9050602081019050919050565b60005b83811015620001785780820151818401526020810190506200015b565b60008484015250505050565b60006200019b620001958462000122565b62000103565b905082815260208101848484011115620001ba57620001b962000088565b5b620001c784828562000158565b509392505050565b600082601f830112620001e757620001e662000083565b5b8151620001f984826020860162000184565b91505092915050565b600080604083850312156200021c576200021b62000079565b5b600083015167ffffffffffffffff8111156200023d576200023c6200007e565b5b6200024b85828601620001cf565b925050602083015167ffffffffffffffff8111156200026f576200026e6200007e565b5b6200027d85828601620001cf565b9150509250929050565b600081519050919050565b7f4e487b7100000000000000000000000000000000000000000000000000000000600052602260045260246000fd5b60006002820490506001821680620002da57607f821691505b602082108103620002f057620002ef62000292565b5b50919050565b60008190508160005260206000209050919050565b60006020601f8301049050919050565b600082821b905092915050565b6000600883026200035a7fffffffffffffffffffffffffffffffffffffffffffffffffffffffffffffffff826200031b565b6200036686836200031b565b95508019841693508086168417925050509392505050565b6000819050919050565b6000819050919050565b6000620003b3620003ad620003a7846200037e565b62000388565b6200037e565b9050919050565b6000819050919050565b620003cf8362000392565b620003e7620003de82620003ba565b84845462000328565b825550505050565b600090565b620003fe620003ef565b6200040b818484620003c4565b505050565b5b81811015620004335762000427600082620003f4565b60018101905062000411565b5050565b601f82111562000482576200044c81620002f6565b62000457846200030b565b8101602085101562000467578190505b6200047f62000476856200030b565b83018262000410565b50505b505050565b600082821c905092915050565b6000620004a76000198460080262000487565b1980831691505092915050565b6000620004c2838362000494565b9150826002028217905092915050565b620004dd8262000287565b67ffffffffffffffff811115620004f957620004f86200009e565b5b620005058254620002c1565b6200051282828562000437565b600060209050601f8311600181146200054a576000841562000535578287015190505b620005418582620004b4565b865550620005b1565b601f1984166200055a86620002f6565b60005b8281101562000584578489015182556001820191506020850194506020810190506200055d565b86831015620005a45784890151620005a0601f89168262000494565b8355505b6001600288020188555050505b505050505050565b61410280620005c96000396000f3fe608060405234801561001057600080fd5b50600436106101a95760003560e01c80638c7929f5116100f9578063b88d4fde11610097578063d30fbf7011610071578063d30fbf701461050d578063e030565e1461053d578063e2271c9f14610559578063e985e9c514610589576101a9565b8063b88d4fde14610491578063c2f1f14a146104ad578063c87b56dd146104dd576101a9565b80639ed27174116100d35780639ed2717414610409578063a22cb46514610439578063a46f14e814610455578063b7013dc114610473576101a9565b80638c7929f5146103845780638fc88c48146103bb57806395d89b41146103eb576101a9565b806323b872dd1161016657806342842e0e1161014057806342842e0e146102ea5780635d09be60146103065780636352211e1461032457806370a0823114610354576101a9565b806323b872dd146102825780632660d5141461029e57806327e235e3146102ba576101a9565b806301012072146101ae57806301ffc9a7146101ca57806306fdde03146101fa578063081812fc14610218578063095ea7b31461024857806316ada54714610264575b600080fd5b6101c860048036038101906101c391906130b4565b6105b9565b005b6101e460048036038101906101df91906131c7565b610894565b6040516101f1919061320f565b60405180910390f35b61020261090e565b60405161020f91906132a9565b60405180910390f35b610232600480360381019061022d91906132cb565b6109a0565b60405161023f9190613339565b60405180910390f35b610262600480360381019061025d9190613380565b6109bc565b005b61026c6109d2565b60405161027991906133cf565b60405180910390f35b61029c600480360381019061029791906133ea565b6109da565b005b6102b860048036038101906102b3919061347d565b610adc565b005b6102d460048036038101906102cf91906134e4565b610bf2565b6040516102e191906133cf565b60405180910390f35b61030460048036038101906102ff91906133ea565b610c0a565b005b61030e610c2a565b60405161031b9190613708565b60405180910390f35b61033e600480360381019061033991906132cb565b611068565b60405161034b9190613339565b60405180910390f35b61036e600480360381019061036991906134e4565b61107a565b60405161037b91906133cf565b60405180910390f35b61039e600480360381019061039991906132cb565b611134565b6040516103b2989796959493929190613739565b60405180910390f35b6103d560048036038101906103d091906132cb565b611368565b6040516103e291906133cf565b60405180910390f35b6103f361140a565b60405161040091906132a9565b60405180910390f35b610423600480360381019061041e91906134e4565b61149c565b6040516104309190613708565b60405180910390f35b610453600480360381019061044e91906137f8565b61193a565b005b61045d611950565b60405161046a9190613708565b60405180910390f35b61047b611d76565b60405161048891906133cf565b60405180910390f35b6104ab60048036038101906104a691906138d9565b611dbd565b005b6104c760048036038101906104c291906132cb565b611dda565b6040516104d49190613339565b60405180910390f35b6104f760048036038101906104f291906132cb565b611e66565b60405161050491906132a9565b60405180910390f35b610527600480360381019061052291906134e4565b611ecf565b60405161053491906133cf565b60405180910390f35b6105576004803603810190610552919061395c565b611ee7565b005b610573600480360381019061056e9190613380565b611fc1565b60405161058091906133cf565b60405180910390f35b6105a3600480360381019061059e91906139af565b611ff2565b6040516105b0919061320f565b60405180910390f35b60006006549050600660008154809291906105d390613a1e565b9190505550604051806101000160405280600073ffffffffffffffffffffffffffffffffffffffff168152602001600067ffffffffffffffff1681526020018681526020018581526020018481526020018381526020018281526020013373ffffffffffffffffffffffffffffffffffffffff168152506007600083815260200190815260200160002060008201518160000160006101000a81548173ffffffffffffffffffffffffffffffffffffffff021916908373ffffffffffffffffffffffffffffffffffffffff16021790555060208201518160000160146101000a81548167ffffffffffffffff021916908367ffffffffffffffff16021790555060408201518160010190816106e89190613c72565b5060608201518160020190816106fe9190613c72565b506080820151816003015560a082015181600401908161071e9190613c72565b5060c0820151816005015560e08201518160060160006101000a81548173ffffffffffffffffffffffffffffffffffffffff021916908373ffffffffffffffffffffffffffffffffffffffff160217905550905050600860003373ffffffffffffffffffffffffffffffffffffffff1673ffffffffffffffffffffffffffffffffffffffff168152602001908152602001600020819080600181540180825580915050600190039060005260206000200160009091909190915055600960003373ffffffffffffffffffffffffffffffffffffffff1673ffffffffffffffffffffffffffffffffffffffff168152602001908152602001600020600081548092919061082990613a1e565b91905055506108383382612086565b3373ffffffffffffffffffffffffffffffffffffffff16817f4d51393837a57b673919bff7255423cbd8f5dff4e6bb6f0dcbc37f586dafc46c878786886040516108859493929190613d44565b60405180910390a35050505050565b60007fad092b5c000000000000000000000000000000000000000000000000000000007bffffffffffffffffffffffffffffffffffffffffffffffffffffffff1916827bffffffffffffffffffffffffffffffffffffffffffffffffffffffff1916148061090757506109068261217f565b5b9050919050565b60606000805461091d90613a95565b80601f016020809104026020016040519081016040528092919081815260200182805461094990613a95565b80156109965780601f1061096b57610100808354040283529160200191610996565b820191906000526020600020905b81548152906001019060200180831161097957829003601f168201915b5050505050905090565b60006109ab82612261565b506109b5826122e9565b9050919050565b6109ce82826109c9612326565b61232e565b5050565b600042905090565b600073ffffffffffffffffffffffffffffffffffffffff168273ffffffffffffffffffffffffffffffffffffffff1603610a4c5760006040517f64a0ae92000000000000000000000000000000000000000000000000000000008152600401610a439190613339565b60405180910390fd5b6000610a608383610a5b612326565b612340565b90508373ffffffffffffffffffffffffffffffffffffffff168173ffffffffffffffffffffffffffffffffffffffff1614610ad6578382826040517f64283d7b000000000000000000000000000000000000000000000000000000008152600401610acd93929190613d9e565b60405180910390fd5b50505050565b60076000858152602001908152602001600020600301548114610b34576040517f08c379a0000000000000000000000000000000000000000000000000000000008152600401610b2b90613e47565b60405180910390fd5b610b3f848484611ee7565b80600a6000610b4d87611068565b73ffffffffffffffffffffffffffffffffffffffff1673ffffffffffffffffffffffffffffffffffffffff1681526020019081526020016000206000828254610b969190613e67565b925050819055508273ffffffffffffffffffffffffffffffffffffffff16847fddf30198c8f217b33732c1d9c4f25fef5319d97880bd3b5f777aad155eb6659984604051610be49190613ecc565b60405180910390a350505050565b600a6020528060005260406000206000915090505481565b610c2583838360405180602001604052806000815250611dbd565b505050565b60606000600960003373ffffffffffffffffffffffffffffffffffffffff1673ffffffffffffffffffffffffffffffffffffffff1681526020019081526020016000205467ffffffffffffffff811115610c8757610c86612f53565b5b604051908082528060200260200182016040528015610cc057816020015b610cad612ea9565b815260200190600190039081610ca55790505b50905060005b600960003373ffffffffffffffffffffffffffffffffffffffff1673ffffffffffffffffffffffffffffffffffffffff168152602001908152602001600020548110156110605760076000600860003373ffffffffffffffffffffffffffffffffffffffff1673ffffffffffffffffffffffffffffffffffffffff1681526020019081526020016000208381548110610d6257610d61613ee7565b5b90600052602060002001548152602001908152602001600020604051806101000160405290816000820160009054906101000a900473ffffffffffffffffffffffffffffffffffffffff1673ffffffffffffffffffffffffffffffffffffffff1673ffffffffffffffffffffffffffffffffffffffff1681526020016000820160149054906101000a900467ffffffffffffffff1667ffffffffffffffff1667ffffffffffffffff168152602001600182018054610e1f90613a95565b80601f0160208091040260200160405190810160405280929190818152602001828054610e4b90613a95565b8015610e985780601f10610e6d57610100808354040283529160200191610e98565b820191906000526020600020905b815481529060010190602001808311610e7b57829003601f168201915b50505050508152602001600282018054610eb190613a95565b80601f0160208091040260200160405190810160405280929190818152602001828054610edd90613a95565b8015610f2a5780601f10610eff57610100808354040283529160200191610f2a565b820191906000526020600020905b815481529060010190602001808311610f0d57829003601f168201915b5050505050815260200160038201548152602001600482018054610f4d90613a95565b80601f0160208091040260200160405190810160405280929190818152602001828054610f7990613a95565b8015610fc65780601f10610f9b57610100808354040283529160200191610fc6565b820191906000526020600020905b815481529060010190602001808311610fa957829003601f168201915b50505050508152602001600582015481526020016006820160009054906101000a900473ffffffffffffffffffffffffffffffffffffffff1673ffffffffffffffffffffffffffffffffffffffff1673ffffffffffffffffffffffffffffffffffffffff168152505082828151811061104257611041613ee7565b5b6020026020010181905250808061105890613a1e565b915050610cc6565b508091505090565b600061107382612261565b9050919050565b60008073ffffffffffffffffffffffffffffffffffffffff168273ffffffffffffffffffffffffffffffffffffffff16036110ed5760006040517f89c62b640000000000000000000000000000000000000000000000000000000081526004016110e49190613339565b60405180910390fd5b600360008373ffffffffffffffffffffffffffffffffffffffff1673ffffffffffffffffffffffffffffffffffffffff168152602001908152602001600020549050919050565b60076020528060005260406000206000915090508060000160009054906101000a900473ffffffffffffffffffffffffffffffffffffffff16908060000160149054906101000a900467ffffffffffffffff169080600101805461119790613a95565b80601f01602080910402602001604051908101604052809291908181526020018280546111c390613a95565b80156112105780601f106111e557610100808354040283529160200191611210565b820191906000526020600020905b8154815290600101906020018083116111f357829003601f168201915b50505050509080600201805461122590613a95565b80601f016020809104026020016040519081016040528092919081815260200182805461125190613a95565b801561129e5780601f106112735761010080835404028352916020019161129e565b820191906000526020600020905b81548152906001019060200180831161128157829003601f168201915b5050505050908060030154908060040180546112b990613a95565b80601f01602080910402602001604051908101604052809291908181526020018280546112e590613a95565b80156113325780601f1061130757610100808354040283529160200191611332565b820191906000526020600020905b81548152906001019060200180831161131557829003601f168201915b5050505050908060050154908060060160009054906101000a900473ffffffffffffffffffffffffffffffffffffffff16905088565b6000426007600084815260200190815260200160002060000160149054906101000a900467ffffffffffffffff1667ffffffffffffffff16106113e1576007600083815260200190815260200160002060000160149054906101000a900467ffffffffffffffff1667ffffffffffffffff169050611405565b7fffffffffffffffffffffffffffffffffffffffffffffffffffffffffffffffff90505b919050565b60606001805461141990613a95565b80601f016020809104026020016040519081016040528092919081815260200182805461144590613a95565b80156114925780601f1061146757610100808354040283529160200191611492565b820191906000526020600020905b81548152906001019060200180831161147557829003601f168201915b5050505050905090565b6060600060065490506000805b8281101561154a57426007600083815260200190815260200160002060000160149054906101000a900467ffffffffffffffff1667ffffffffffffffff1610611537576114f581611dda565b73ffffffffffffffffffffffffffffffffffffffff168573ffffffffffffffffffffffffffffffffffffffff160361153657818061153290613a1e565b9250505b5b808061154290613a1e565b9150506114a9565b5060008167ffffffffffffffff81111561156757611566612f53565b5b6040519080825280602002602001820160405280156115a057816020015b61158d612ea9565b8152602001906001900390816115855790505b5090506000805b8481101561192d57426007600083815260200190815260200160002060000160149054906101000a900467ffffffffffffffff1667ffffffffffffffff161061191a576115f381611dda565b73ffffffffffffffffffffffffffffffffffffffff168773ffffffffffffffffffffffffffffffffffffffff16036119195760076000828152602001908152602001600020604051806101000160405290816000820160009054906101000a900473ffffffffffffffffffffffffffffffffffffffff1673ffffffffffffffffffffffffffffffffffffffff1673ffffffffffffffffffffffffffffffffffffffff1681526020016000820160149054906101000a900467ffffffffffffffff1667ffffffffffffffff1667ffffffffffffffff1681526020016001820180546116dc90613a95565b80601f016020809104026020016040519081016040528092919081815260200182805461170890613a95565b80156117555780601f1061172a57610100808354040283529160200191611755565b820191906000526020600020905b81548152906001019060200180831161173857829003601f168201915b5050505050815260200160028201805461176e90613a95565b80601f016020809104026020016040519081016040528092919081815260200182805461179a90613a95565b80156117e75780601f106117bc576101008083540402835291602001916117e7565b820191906000526020600020905b8154815290600101906020018083116117ca57829003601f168201915b505050505081526020016003820154815260200160048201805461180a90613a95565b80601f016020809104026020016040519081016040528092919081815260200182805461183690613a95565b80156118835780601f1061185857610100808354040283529160200191611883565b820191906000526020600020905b81548152906001019060200180831161186657829003601f168201915b50505050508152602001600582015481526020016006820160009054906101000a900473ffffffffffffffffffffffffffffffffffffffff1673ffffffffffffffffffffffffffffffffffffffff1673ffffffffffffffffffffffffffffffffffffffff16815250508383815181106118ff576118fe613ee7565b5b6020026020010181905250818061191590613a1e565b9250505b5b808061192590613a1e565b9150506115a7565b5081945050505050919050565b61194c611945612326565b838361255a565b5050565b6060600060065490506000805b828110156119c357426007600083815260200190815260200160002060000160149054906101000a900467ffffffffffffffff1667ffffffffffffffff1610156119b05781806119ac90613a1e565b9250505b80806119bb90613a1e565b91505061195d565b5060008167ffffffffffffffff8111156119e0576119df612f53565b5b604051908082528060200260200182016040528015611a1957816020015b611a06612ea9565b8152602001906001900390816119fe5790505b5090506000805b84811015611d6b57426007600083815260200190815260200160002060000160149054906101000a900467ffffffffffffffff1667ffffffffffffffff161015611d585760076000828152602001908152602001600020604051806101000160405290816000820160009054906101000a900473ffffffffffffffffffffffffffffffffffffffff1673ffffffffffffffffffffffffffffffffffffffff1673ffffffffffffffffffffffffffffffffffffffff1681526020016000820160149054906101000a900467ffffffffffffffff1667ffffffffffffffff1667ffffffffffffffff168152602001600182018054611b1b90613a95565b80601f0160208091040260200160405190810160405280929190818152602001828054611b4790613a95565b8015611b945780601f10611b6957610100808354040283529160200191611b94565b820191906000526020600020905b815481529060010190602001808311611b7757829003601f168201915b50505050508152602001600282018054611bad90613a95565b80601f0160208091040260200160405190810160405280929190818152602001828054611bd990613a95565b8015611c265780601f10611bfb57610100808354040283529160200191611c26565b820191906000526020600020905b815481529060010190602001808311611c0957829003601f168201915b5050505050815260200160038201548152602001600482018054611c4990613a95565b80601f0160208091040260200160405190810160405280929190818152602001828054611c7590613a95565b8015611cc25780601f10611c9757610100808354040283529160200191611cc2565b820191906000526020600020905b815481529060010190602001808311611ca557829003601f168201915b50505050508152602001600582015481526020016006820160009054906101000a900473ffffffffffffffffffffffffffffffffffffffff1673ffffffffffffffffffffffffffffffffffffffff1673ffffffffffffffffffffffffffffffffffffffff1681525050838381518110611d3e57611d3d613ee7565b5b60200260200101819052508180611d5490613a1e565b9250505b8080611d6390613a1e565b915050611a20565b508194505050505090565b6000600a60003373ffffffffffffffffffffffffffffffffffffffff1673ffffffffffffffffffffffffffffffffffffffff16815260200190815260200160002054905090565b611dc88484846109da565b611dd4848484846126c9565b50505050565b6000426007600084815260200190815260200160002060000160149054906101000a900467ffffffffffffffff1667ffffffffffffffff1610611e55576007600083815260200190815260200160002060000160009054906101000a900473ffffffffffffffffffffffffffffffffffffffff169050611e61565b611e5e82611068565b90505b919050565b6060611e7182612261565b506000611e7c612880565b90506000815111611e9c5760405180602001604052806000815250611ec7565b80611ea684612897565b604051602001611eb7929190613f52565b6040516020818303038152906040525b915050919050565b60096020528060005260406000206000915090505481565b6000600760008581526020019081526020016000209050828160000160006101000a81548173ffffffffffffffffffffffffffffffffffffffff021916908373ffffffffffffffffffffffffffffffffffffffff160217905550818160000160146101000a81548167ffffffffffffffff021916908367ffffffffffffffff1602179055508273ffffffffffffffffffffffffffffffffffffffff16847f4e06b4e7000e659094299b3533b47b6aa8ad048e95e872d23d1f4ee55af89cfe84604051611fb39190613f76565b60405180910390a350505050565b60086020528160005260406000208181548110611fdd57600080fd5b90600052602060002001600091509150505481565b6000600560008473ffffffffffffffffffffffffffffffffffffffff1673ffffffffffffffffffffffffffffffffffffffff16815260200190815260200160002060008373ffffffffffffffffffffffffffffffffffffffff1673ffffffffffffffffffffffffffffffffffffffff16815260200190815260200160002060009054906101000a900460ff16905092915050565b600073ffffffffffffffffffffffffffffffffffffffff168273ffffffffffffffffffffffffffffffffffffffff16036120f85760006040517f64a0ae920000000000000000000000000000000000000000000000000000000081526004016120ef9190613339565b60405180910390fd5b600061210683836000612340565b9050600073ffffffffffffffffffffffffffffffffffffffff168173ffffffffffffffffffffffffffffffffffffffff161461217a5760006040517f73c6ac6e0000000000000000000000000000000000000000000000000000000081526004016121719190613339565b60405180910390fd5b505050565b60007f80ac58cd000000000000000000000000000000000000000000000000000000007bffffffffffffffffffffffffffffffffffffffffffffffffffffffff1916827bffffffffffffffffffffffffffffffffffffffffffffffffffffffff1916148061224a57507f5b5e139f000000000000000000000000000000000000000000000000000000007bffffffffffffffffffffffffffffffffffffffffffffffffffffffff1916827bffffffffffffffffffffffffffffffffffffffffffffffffffffffff1916145b8061225a575061225982612965565b5b9050919050565b60008061226d836129cf565b9050600073ffffffffffffffffffffffffffffffffffffffff168173ffffffffffffffffffffffffffffffffffffffff16036122e057826040517f7e2732890000000000000000000000000000000000000000000000000000000081526004016122d791906133cf565b60405180910390fd5b80915050919050565b60006004600083815260200190815260200160002060009054906101000a900473ffffffffffffffffffffffffffffffffffffffff169050919050565b600033905090565b61233b8383836001612a0c565b505050565b60008061234c846129cf565b9050600073ffffffffffffffffffffffffffffffffffffffff168373ffffffffffffffffffffffffffffffffffffffff161461238e5761238d818486612bd1565b5b600073ffffffffffffffffffffffffffffffffffffffff168173ffffffffffffffffffffffffffffffffffffffff161461241f576123d0600085600080612a0c565b6001600360008373ffffffffffffffffffffffffffffffffffffffff1673ffffffffffffffffffffffffffffffffffffffff168152602001908152602001600020600082825403925050819055505b600073ffffffffffffffffffffffffffffffffffffffff168573ffffffffffffffffffffffffffffffffffffffff16146124a2576001600360008773ffffffffffffffffffffffffffffffffffffffff1673ffffffffffffffffffffffffffffffffffffffff168152602001908152602001600020600082825401925050819055505b846002600086815260200190815260200160002060006101000a81548173ffffffffffffffffffffffffffffffffffffffff021916908373ffffffffffffffffffffffffffffffffffffffff160217905550838573ffffffffffffffffffffffffffffffffffffffff168273ffffffffffffffffffffffffffffffffffffffff167fddf252ad1be2c89b69c2b068fc378daa952ba7f163c4a11628f55a4df523b3ef60405160405180910390a4809150509392505050565b600073ffffffffffffffffffffffffffffffffffffffff168273ffffffffffffffffffffffffffffffffffffffff16036125cb57816040517f5b08ba180000000000000000000000000000000000000000000000000000000081526004016125c29190613339565b60405180910390fd5b80600560008573ffffffffffffffffffffffffffffffffffffffff1673ffffffffffffffffffffffffffffffffffffffff16815260200190815260200160002060008473ffffffffffffffffffffffffffffffffffffffff1673ffffffffffffffffffffffffffffffffffffffff16815260200190815260200160002060006101000a81548160ff0219169083151502179055508173ffffffffffffffffffffffffffffffffffffffff168373ffffffffffffffffffffffffffffffffffffffff167f17307eab39ab6107e8899845ad3d59bd9653f200f220920489ca2b5937696c31836040516126bc919061320f565b60405180910390a3505050565b60008373ffffffffffffffffffffffffffffffffffffffff163b111561287a578273ffffffffffffffffffffffffffffffffffffffff1663150b7a0261270d612326565b8685856040518563ffffffff1660e01b815260040161272f9493929190613fe6565b6020604051808303816000875af192505050801561276b57506040513d601f19601f820116820180604052508101906127689190614047565b60015b6127ef573d806000811461279b576040519150601f19603f3d011682016040523d82523d6000602084013e6127a0565b606091505b5060008151036127e757836040517f64a0ae920000000000000000000000000000000000000000000000000000000081526004016127de9190613339565b60405180910390fd5b805181602001fd5b63150b7a0260e01b7bffffffffffffffffffffffffffffffffffffffffffffffffffffffff1916817bffffffffffffffffffffffffffffffffffffffffffffffffffffffff19161461287857836040517f64a0ae9200000000000000000000000000000000000000000000000000000000815260040161286f9190613339565b60405180910390fd5b505b50505050565b606060405180602001604052806000815250905090565b6060600060016128a684612c95565b01905060008167ffffffffffffffff8111156128c5576128c4612f53565b5b6040519080825280601f01601f1916602001820160405280156128f75781602001600182028036833780820191505090505b509050600082602001820190505b60011561295a578080600190039150507f3031323334353637383961626364656600000000000000000000000000000000600a86061a8153600a858161294e5761294d614074565b5b04945060008503612905575b819350505050919050565b60007f01ffc9a7000000000000000000000000000000000000000000000000000000007bffffffffffffffffffffffffffffffffffffffffffffffffffffffff1916827bffffffffffffffffffffffffffffffffffffffffffffffffffffffff1916149050919050565b60006002600083815260200190815260200160002060009054906101000a900473ffffffffffffffffffffffffffffffffffffffff169050919050565b8080612a455750600073ffffffffffffffffffffffffffffffffffffffff168273ffffffffffffffffffffffffffffffffffffffff1614155b15612b79576000612a5584612261565b9050600073ffffffffffffffffffffffffffffffffffffffff168373ffffffffffffffffffffffffffffffffffffffff1614158015612ac057508273ffffffffffffffffffffffffffffffffffffffff168173ffffffffffffffffffffffffffffffffffffffff1614155b8015612ad35750612ad18184611ff2565b155b15612b1557826040517fa9fbf51f000000000000000000000000000000000000000000000000000000008152600401612b0c9190613339565b60405180910390fd5b8115612b7757838573ffffffffffffffffffffffffffffffffffffffff168273ffffffffffffffffffffffffffffffffffffffff167f8c5be1e5ebec7d5bd14f71427d1e84f3dd0314c0f7b2291e5b200ac8c7c3b92560405160405180910390a45b505b836004600085815260200190815260200160002060006101000a81548173ffffffffffffffffffffffffffffffffffffffff021916908373ffffffffffffffffffffffffffffffffffffffff16021790555050505050565b612bdc838383612de8565b612c9057600073ffffffffffffffffffffffffffffffffffffffff168373ffffffffffffffffffffffffffffffffffffffff1603612c5157806040517f7e273289000000000000000000000000000000000000000000000000000000008152600401612c4891906133cf565b60405180910390fd5b81816040517f177e802f000000000000000000000000000000000000000000000000000000008152600401612c879291906140a3565b60405180910390fd5b505050565b600080600090507a184f03e93ff9f4daa797ed6e38ed64bf6a1f0100000000000000008310612cf3577a184f03e93ff9f4daa797ed6e38ed64bf6a1f0100000000000000008381612ce957612ce8614074565b5b0492506040810190505b6d04ee2d6d415b85acef81000000008310612d30576d04ee2d6d415b85acef81000000008381612d2657612d25614074565b5b0492506020810190505b662386f26fc100008310612d5f57662386f26fc100008381612d5557612d54614074565b5b0492506010810190505b6305f5e1008310612d88576305f5e1008381612d7e57612d7d614074565b5b0492506008810190505b6127108310612dad576127108381612da357612da2614074565b5b0492506004810190505b60648310612dd05760648381612dc657612dc5614074565b5b0492506002810190505b600a8310612ddf576001810190505b80915050919050565b60008073ffffffffffffffffffffffffffffffffffffffff168373ffffffffffffffffffffffffffffffffffffffff1614158015612ea057508273ffffffffffffffffffffffffffffffffffffffff168473ffffffffffffffffffffffffffffffffffffffff161480612e615750612e608484611ff2565b5b80612e9f57508273ffffffffffffffffffffffffffffffffffffffff16612e87836122e9565b73ffffffffffffffffffffffffffffffffffffffff16145b5b90509392505050565b604051806101000160405280600073ffffffffffffffffffffffffffffffffffffffff168152602001600067ffffffffffffffff1681526020016060815260200160608152602001600081526020016060815260200160008152602001600073ffffffffffffffffffffffffffffffffffffffff1681525090565b6000604051905090565b600080fd5b600080fd5b600080fd5b600080fd5b6000601f19601f8301169050919050565b7f4e487b7100000000000000000000000000000000000000000000000000000000600052604160045260246000fd5b612f8b82612f42565b810181811067ffffffffffffffff82111715612faa57612fa9612f53565b5b80604052505050565b6000612fbd612f24565b9050612fc98282612f82565b919050565b600067ffffffffffffffff821115612fe957612fe8612f53565b5b612ff282612f42565b9050602081019050919050565b82818337600083830152505050565b600061302161301c84612fce565b612fb3565b90508281526020810184848401111561303d5761303c612f3d565b5b613048848285612fff565b509392505050565b600082601f83011261306557613064612f38565b5b813561307584826020860161300e565b91505092915050565b6000819050919050565b6130918161307e565b811461309c57600080fd5b50565b6000813590506130ae81613088565b92915050565b600080600080608085870312156130ce576130cd612f2e565b5b600085013567ffffffffffffffff8111156130ec576130eb612f33565b5b6130f887828801613050565b945050602085013567ffffffffffffffff81111561311957613118612f33565b5b61312587828801613050565b93505060406131368782880161309f565b925050606085013567ffffffffffffffff81111561315757613156612f33565b5b61316387828801613050565b91505092959194509250565b60007fffffffff0000000000000000000000000000000000000000000000000000000082169050919050565b6131a48161316f565b81146131af57600080fd5b50565b6000813590506131c18161319b565b92915050565b6000602082840312156131dd576131dc612f2e565b5b60006131eb848285016131b2565b91505092915050565b60008115159050919050565b613209816131f4565b82525050565b60006020820190506132246000830184613200565b92915050565b600081519050919050565b600082825260208201905092915050565b60005b83811015613264578082015181840152602081019050613249565b60008484015250505050565b600061327b8261322a565b6132858185613235565b9350613295818560208601613246565b61329e81612f42565b840191505092915050565b600060208201905081810360008301526132c38184613270565b905092915050565b6000602082840312156132e1576132e0612f2e565b5b60006132ef8482850161309f565b91505092915050565b600073ffffffffffffffffffffffffffffffffffffffff82169050919050565b6000613323826132f8565b9050919050565b61333381613318565b82525050565b600060208201905061334e600083018461332a565b92915050565b61335d81613318565b811461336857600080fd5b50565b60008135905061337a81613354565b92915050565b6000806040838503121561339757613396612f2e565b5b60006133a58582860161336b565b92505060206133b68582860161309f565b9150509250929050565b6133c98161307e565b82525050565b60006020820190506133e460008301846133c0565b92915050565b60008060006060848603121561340357613402612f2e565b5b60006134118682870161336b565b93505060206134228682870161336b565b92505060406134338682870161309f565b9150509250925092565b600067ffffffffffffffff82169050919050565b61345a8161343d565b811461346557600080fd5b50565b60008135905061347781613451565b92915050565b6000806000806080858703121561349757613496612f2e565b5b60006134a58782880161309f565b94505060206134b68782880161336b565b93505060406134c787828801613468565b92505060606134d88782880161309f565b91505092959194509250565b6000602082840312156134fa576134f9612f2e565b5b60006135088482850161336b565b91505092915050565b600081519050919050565b600082825260208201905092915050565b6000819050602082019050919050565b61354681613318565b82525050565b6135558161343d565b82525050565b600082825260208201905092915050565b60006135778261322a565b613581818561355b565b9350613591818560208601613246565b61359a81612f42565b840191505092915050565b6135ae8161307e565b82525050565b6000610100830160008301516135cd600086018261353d565b5060208301516135e0602086018261354c565b50604083015184820360408601526135f8828261356c565b91505060608301518482036060860152613612828261356c565b915050608083015161362760808601826135a5565b5060a083015184820360a086015261363f828261356c565b91505060c083015161365460c08601826135a5565b5060e083015161366760e086018261353d565b508091505092915050565b600061367e83836135b4565b905092915050565b6000602082019050919050565b600061369e82613511565b6136a8818561351c565b9350836020820285016136ba8561352d565b8060005b858110156136f657848403895281516136d78582613672565b94506136e283613686565b925060208a019950506001810190506136be565b50829750879550505050505092915050565b600060208201905081810360008301526137228184613693565b905092915050565b6137338161343d565b82525050565b60006101008201905061374f600083018b61332a565b61375c602083018a61372a565b818103604083015261376e8189613270565b905081810360608301526137828188613270565b905061379160808301876133c0565b81810360a08301526137a38186613270565b90506137b260c08301856133c0565b6137bf60e083018461332a565b9998505050505050505050565b6137d5816131f4565b81146137e057600080fd5b50565b6000813590506137f2816137cc565b92915050565b6000806040838503121561380f5761380e612f2e565b5b600061381d8582860161336b565b925050602061382e858286016137e3565b9150509250929050565b600067ffffffffffffffff82111561385357613852612f53565b5b61385c82612f42565b9050602081019050919050565b600061387c61387784613838565b612fb3565b90508281526020810184848401111561389857613897612f3d565b5b6138a3848285612fff565b509392505050565b600082601f8301126138c0576138bf612f38565b5b81356138d0848260208601613869565b91505092915050565b600080600080608085870312156138f3576138f2612f2e565b5b60006139018782880161336b565b94505060206139128782880161336b565b93505060406139238782880161309f565b925050606085013567ffffffffffffffff81111561394457613943612f33565b5b613950878288016138ab565b91505092959194509250565b60008060006060848603121561397557613974612f2e565b5b60006139838682870161309f565b93505060206139948682870161336b565b92505060406139a586828701613468565b9150509250925092565b600080604083850312156139c6576139c5612f2e565b5b60006139d48582860161336b565b92505060206139e58582860161336b565b9150509250929050565b7f4e487b7100000000000000000000000000000000000000000000000000000000600052601160045260246000fd5b6000613a298261307e565b91507fffffffffffffffffffffffffffffffffffffffffffffffffffffffffffffffff8203613a5b57613a5a6139ef565b5b600182019050919050565b7f4e487b7100000000000000000000000000000000000000000000000000000000600052602260045260246000fd5b60006002820490506001821680613aad57607f821691505b602082108103613ac057613abf613a66565b5b50919050565b60008190508160005260206000209050919050565b60006020601f8301049050919050565b600082821b905092915050565b600060088302613b287fffffffffffffffffffffffffffffffffffffffffffffffffffffffffffffffff82613aeb565b613b328683613aeb565b95508019841693508086168417925050509392505050565b6000819050919050565b6000613b6f613b6a613b658461307e565b613b4a565b61307e565b9050919050565b6000819050919050565b613b8983613b54565b613b9d613b9582613b76565b848454613af8565b825550505050565b600090565b613bb2613ba5565b613bbd818484613b80565b505050565b5b81811015613be157613bd6600082613baa565b600181019050613bc3565b5050565b601f821115613c2657613bf781613ac6565b613c0084613adb565b81016020851015613c0f578190505b613c23613c1b85613adb565b830182613bc2565b50505b505050565b600082821c905092915050565b6000613c4960001984600802613c2b565b1980831691505092915050565b6000613c628383613c38565b9150826002028217905092915050565b613c7b8261322a565b67ffffffffffffffff811115613c9457613c93612f53565b5b613c9e8254613a95565b613ca9828285613be5565b600060209050601f831160018114613cdc5760008415613cca578287015190505b613cd48582613c56565b865550613d3c565b601f198416613cea86613ac6565b60005b82811015613d1257848901518255600182019150602085019450602081019050613ced565b86831015613d2f5784890151613d2b601f891682613c38565b8355505b6001600288020188555050505b505050505050565b60006080820190508181036000830152613d5e8187613270565b90508181036020830152613d728186613270565b90508181036040830152613d868185613270565b9050613d9560608301846133c0565b95945050505050565b6000606082019050613db3600083018661332a565b613dc060208301856133c0565b613dcd604083018461332a565b949350505050565b7f506c65617365207061792074686520636f7272656374207072696365206f662060008201527f7468652050726f70657274790000000000000000000000000000000000000000602082015250565b6000613e31602c83613235565b9150613e3c82613dd5565b604082019050919050565b60006020820190508181036000830152613e6081613e24565b9050919050565b6000613e728261307e565b9150613e7d8361307e565b9250828201905080821115613e9557613e946139ef565b5b92915050565b6000613eb6613eb1613eac8461343d565b613b4a565b61307e565b9050919050565b613ec681613e9b565b82525050565b6000602082019050613ee16000830184613ebd565b92915050565b7f4e487b7100000000000000000000000000000000000000000000000000000000600052603260045260246000fd5b600081905092915050565b6000613f2c8261322a565b613f368185613f16565b9350613f46818560208601613246565b80840191505092915050565b6000613f5e8285613f21565b9150613f6a8284613f21565b91508190509392505050565b6000602082019050613f8b600083018461372a565b92915050565b600081519050919050565b600082825260208201905092915050565b6000613fb882613f91565b613fc28185613f9c565b9350613fd2818560208601613246565b613fdb81612f42565b840191505092915050565b6000608082019050613ffb600083018761332a565b614008602083018661332a565b61401560408301856133c0565b81810360608301526140278184613fad565b905095945050505050565b6000815190506140418161319b565b92915050565b60006020828403121561405d5761405c612f2e565b5b600061406b84828501614032565b91505092915050565b7f4e487b7100000000000000000000000000000000000000000000000000000000600052601260045260246000fd5b60006040820190506140b8600083018561332a565b6140c560208301846133c0565b939250505056fea26469706673582212204334ff73ed246d8e998be2e463264a104860580ec2d1e06e9d96afcf1663cad864736f6c63430008150033",
  "linkReferences": {},
  "deployedLinkReferences": {}
}