{
  "_format": "hh-sol-artifact-1",
  "contractName": "ERC4907",
  "sourceName": "contracts/ERC4907.sol",
  "address": "0x8F23f9BC99f5Bd748d89326ce225042530C40508",
  "abi": [
    {
      "inputs": [
        {
          "internalType": "string",
          "name": "name_",
          "type": "string"
        },
        {
          "internalType": "string",
          "name": "symbol_",
          "type": "string"
        }
      ],
      "stateMutability": "nonpayable",
      "type": "constructor"
    },
    {
      "inputs": [
        {
          "internalType": "address",
          "name": "sender",
          "type": "address"
        },
        {
          "internalType": "uint256",
          "name": "tokenId",
          "type": "uint256"
        },
        {
          "internalType": "address",
          "name": "owner",
          "type": "address"
        }
      ],
      "name": "ERC721IncorrectOwner",
      "type": "error"
    },
    {
      "inputs": [
        {
          "internalType": "address",
          "name": "operator",
          "type": "address"
        },
        {
          "internalType": "uint256",
          "name": "tokenId",
          "type": "uint256"
        }
      ],
      "name": "ERC721InsufficientApproval",
      "type": "error"
    },
    {
      "inputs": [
        {
          "internalType": "address",
          "name": "approver",
          "type": "address"
        }
      ],
      "name": "ERC721InvalidApprover",
      "type": "error"
    },
    {
      "inputs": [
        {
          "internalType": "address",
          "name": "operator",
          "type": "address"
        }
      ],
      "name": "ERC721InvalidOperator",
      "type": "error"
    },
    {
      "inputs": [
        {
          "internalType": "address",
          "name": "owner",
          "type": "address"
        }
      ],
      "name": "ERC721InvalidOwner",
      "type": "error"
    },
    {
      "inputs": [
        {
          "internalType": "address",
          "name": "receiver",
          "type": "address"
        }
      ],
      "name": "ERC721InvalidReceiver",
      "type": "error"
    },
    {
      "inputs": [
        {
          "internalType": "address",
          "name": "sender",
          "type": "address"
        }
      ],
      "name": "ERC721InvalidSender",
      "type": "error"
    },
    {
      "inputs": [
        {
          "internalType": "uint256",
          "name": "tokenId",
          "type": "uint256"
        }
      ],
      "name": "ERC721NonexistentToken",
      "type": "error"
    },
    {
      "anonymous": false,
      "inputs": [
        {
          "indexed": true,
          "internalType": "address",
          "name": "owner",
          "type": "address"
        },
        {
          "indexed": true,
          "internalType": "address",
          "name": "approved",
          "type": "address"
        },
        {
          "indexed": true,
          "internalType": "uint256",
          "name": "tokenId",
          "type": "uint256"
        }
      ],
      "name": "Approval",
      "type": "event"
    },
    {
      "anonymous": false,
      "inputs": [
        {
          "indexed": true,
          "internalType": "address",
          "name": "owner",
          "type": "address"
        },
        {
          "indexed": true,
          "internalType": "address",
          "name": "operator",
          "type": "address"
        },
        {
          "indexed": false,
          "internalType": "bool",
          "name": "approved",
          "type": "bool"
        }
      ],
      "name": "ApprovalForAll",
      "type": "event"
    },
    {
      "anonymous": false,
      "inputs": [
        {
          "indexed": false,
          "internalType": "address",
          "name": "user",
          "type": "address"
        },
        {
          "indexed": false,
          "internalType": "uint256",
          "name": "price",
          "type": "uint256"
        }
      ],
      "name": "BalanceAdded",
      "type": "event"
    },
    {
      "anonymous": false,
      "inputs": [
        {
          "indexed": true,
          "internalType": "uint256",
          "name": "tokenId",
          "type": "uint256"
        },
        {
          "indexed": true,
          "internalType": "address",
          "name": "owner",
          "type": "address"
        },
        {
          "indexed": false,
          "internalType": "string",
          "name": "name",
          "type": "string"
        },
        {
          "indexed": false,
          "internalType": "string",
          "name": "location",
          "type": "string"
        },
        {
          "indexed": false,
          "internalType": "string",
          "name": "imageIPFSHash",
          "type": "string"
        },
        {
          "indexed": false,
          "internalType": "uint256",
          "name": "price",
          "type": "uint256"
        }
      ],
      "name": "PropertyListed",
      "type": "event"
    },
    {
      "anonymous": false,
      "inputs": [
        {
          "indexed": true,
          "internalType": "uint256",
          "name": "tokenId",
          "type": "uint256"
        },
        {
          "indexed": true,
          "internalType": "address",
          "name": "user",
          "type": "address"
        },
        {
          "indexed": false,
          "internalType": "uint256",
          "name": "expires",
          "type": "uint256"
        }
      ],
      "name": "PropertyRented",
      "type": "event"
    },
    {
      "anonymous": false,
      "inputs": [
        {
          "indexed": true,
          "internalType": "address",
          "name": "from",
          "type": "address"
        },
        {
          "indexed": true,
          "internalType": "address",
          "name": "to",
          "type": "address"
        },
        {
          "indexed": true,
          "internalType": "uint256",
          "name": "tokenId",
          "type": "uint256"
        }
      ],
      "name": "Transfer",
      "type": "event"
    },
    {
      "anonymous": false,
      "inputs": [
        {
          "indexed": true,
          "internalType": "uint256",
          "name": "tokenId",
          "type": "uint256"
        },
        {
          "indexed": true,
          "internalType": "address",
          "name": "user",
          "type": "address"
        },
        {
          "indexed": false,
          "internalType": "uint64",
          "name": "expires",
          "type": "uint64"
        }
      ],
      "name": "UpdateUser",
      "type": "event"
    },
    {
      "inputs": [
        {
          "internalType": "uint256",
          "name": "_amount",
          "type": "uint256"
        }
      ],
      "name": "addUserBalance",
      "outputs": [],
      "stateMutability": "nonpayable",
      "type": "function"
    },
    {
      "inputs": [],
      "name": "allAvailableRentingProperties",
      "outputs": [
        {
          "components": [
            {
              "internalType": "address",
              "name": "user",
              "type": "address"
            },
            {
              "internalType": "uint64",
              "name": "expires",
              "type": "uint64"
            },
            {
              "internalType": "string",
              "name": "propertyName",
              "type": "string"
            },
            {
              "internalType": "string",
              "name": "location",
              "type": "string"
            },
            {
              "internalType": "uint256",
              "name": "price",
              "type": "uint256"
            },
            {
              "internalType": "string",
              "name": "imageIPFSHash",
              "type": "string"
            },
            {
              "internalType": "uint256",
              "name": "tokenId",
              "type": "uint256"
            },
            {
              "internalType": "address",
              "name": "owner",
              "type": "address"
            }
          ],
          "internalType": "struct ERC4907.UserInfo[]",
          "name": "",
          "type": "tuple[]"
        }
      ],
      "stateMutability": "view",
      "type": "function"
    },
    {
      "inputs": [
        {
          "internalType": "address",
          "name": "to",
          "type": "address"
        },
        {
          "internalType": "uint256",
          "name": "tokenId",
          "type": "uint256"
        }
      ],
      "name": "approve",
      "outputs": [],
      "stateMutability": "nonpayable",
      "type": "function"
    },
    {
      "inputs": [
        {
          "internalType": "address",
          "name": "owner",
          "type": "address"
        }
      ],
      "name": "balanceOf",
      "outputs": [
        {
          "internalType": "uint256",
          "name": "",
          "type": "uint256"
        }
      ],
      "stateMutability": "view",
      "type": "function"
    },
    {
      "inputs": [
        {
          "internalType": "address",
          "name": "",
          "type": "address"
        }
      ],
      "name": "balances",
      "outputs": [
        {
          "internalType": "uint256",
          "name": "",
          "type": "uint256"
        }
      ],
      "stateMutability": "view",
      "type": "function"
    },
    {
      "inputs": [
        {
          "internalType": "uint256",
          "name": "tokenId",
          "type": "uint256"
        }
      ],
      "name": "getApproved",
      "outputs": [
        {
          "internalType": "address",
          "name": "",
          "type": "address"
        }
      ],
      "stateMutability": "view",
      "type": "function"
    },
    {
      "inputs": [
        {
          "internalType": "address",
          "name": "_accountAddr",
          "type": "address"
        }
      ],
      "name": "getRentedProperties",
      "outputs": [
        {
          "components": [
            {
              "internalType": "address",
              "name": "user",
              "type": "address"
            },
            {
              "internalType": "uint64",
              "name": "expires",
              "type": "uint64"
            },
            {
              "internalType": "string",
              "name": "propertyName",
              "type": "string"
            },
            {
              "internalType": "string",
              "name": "location",
              "type": "string"
            },
            {
              "internalType": "uint256",
              "name": "price",
              "type": "uint256"
            },
            {
              "internalType": "string",
              "name": "imageIPFSHash",
              "type": "string"
            },
            {
              "internalType": "uint256",
              "name": "tokenId",
              "type": "uint256"
            },
            {
              "internalType": "address",
              "name": "owner",
              "type": "address"
            }
          ],
          "internalType": "struct ERC4907.UserInfo[]",
          "name": "",
          "type": "tuple[]"
        }
      ],
      "stateMutability": "view",
      "type": "function"
    },
    {
      "inputs": [],
      "name": "getUserBalance",
      "outputs": [
        {
          "internalType": "uint256",
          "name": "",
          "type": "uint256"
        }
      ],
      "stateMutability": "view",
      "type": "function"
    },
    {
      "inputs": [],
      "name": "getUserProperties",
      "outputs": [
        {
          "components": [
            {
              "internalType": "address",
              "name": "user",
              "type": "address"
            },
            {
              "internalType": "uint64",
              "name": "expires",
              "type": "uint64"
            },
            {
              "internalType": "string",
              "name": "propertyName",
              "type": "string"
            },
            {
              "internalType": "string",
              "name": "location",
              "type": "string"
            },
            {
              "internalType": "uint256",
              "name": "price",
              "type": "uint256"
            },
            {
              "internalType": "string",
              "name": "imageIPFSHash",
              "type": "string"
            },
            {
              "internalType": "uint256",
              "name": "tokenId",
              "type": "uint256"
            },
            {
              "internalType": "address",
              "name": "owner",
              "type": "address"
            }
          ],
          "internalType": "struct ERC4907.UserInfo[]",
          "name": "",
          "type": "tuple[]"
        }
      ],
      "stateMutability": "view",
      "type": "function"
    },
    {
      "inputs": [
        {
          "internalType": "address",
          "name": "owner",
          "type": "address"
        },
        {
          "internalType": "address",
          "name": "operator",
          "type": "address"
        }
      ],
      "name": "isApprovedForAll",
      "outputs": [
        {
          "internalType": "bool",
          "name": "",
          "type": "bool"
        }
      ],
      "stateMutability": "view",
      "type": "function"
    },
    {
      "inputs": [
        {
          "internalType": "uint256",
          "name": "",
          "type": "uint256"
        }
      ],
      "name": "listedProperties",
      "outputs": [
        {
          "internalType": "address",
          "name": "user",
          "type": "address"
        },
        {
          "internalType": "uint64",
          "name": "expires",
          "type": "uint64"
        },
        {
          "internalType": "string",
          "name": "propertyName",
          "type": "string"
        },
        {
          "internalType": "string",
          "name": "location",
          "type": "string"
        },
        {
          "internalType": "uint256",
          "name": "price",
          "type": "uint256"
        },
        {
          "internalType": "string",
          "name": "imageIPFSHash",
          "type": "string"
        },
        {
          "internalType": "uint256",
          "name": "tokenId",
          "type": "uint256"
        },
        {
          "internalType": "address",
          "name": "owner",
          "type": "address"
        }
      ],
      "stateMutability": "view",
      "type": "function"
    },
    {
      "inputs": [
        {
          "internalType": "string",
          "name": "_propertyName",
          "type": "string"
        },
        {
          "internalType": "string",
          "name": "_location",
          "type": "string"
        },
        {
          "internalType": "uint256",
          "name": "_price",
          "type": "uint256"
        },
        {
          "internalType": "string",
          "name": "_imageIPFSHash",
          "type": "string"
        }
      ],
      "name": "mint",
      "outputs": [],
      "stateMutability": "nonpayable",
      "type": "function"
    },
    {
      "inputs": [],
      "name": "name",
      "outputs": [
        {
          "internalType": "string",
          "name": "",
          "type": "string"
        }
      ],
      "stateMutability": "view",
      "type": "function"
    },
    {
      "inputs": [
        {
          "internalType": "uint256",
          "name": "tokenId",
          "type": "uint256"
        }
      ],
      "name": "ownerOf",
      "outputs": [
        {
          "internalType": "address",
          "name": "",
          "type": "address"
        }
      ],
      "stateMutability": "view",
      "type": "function"
    },
    {
      "inputs": [
        {
          "internalType": "uint256",
          "name": "tokenId",
          "type": "uint256"
        },
        {
          "internalType": "address",
          "name": "_user",
          "type": "address"
        },
        {
          "internalType": "uint64",
          "name": "expires",
          "type": "uint64"
        },
        {
          "internalType": "uint256",
          "name": "_price",
          "type": "uint256"
        }
      ],
      "name": "rentProperty",
      "outputs": [],
      "stateMutability": "nonpayable",
      "type": "function"
    },
    {
      "inputs": [
        {
          "internalType": "address",
          "name": "from",
          "type": "address"
        },
        {
          "internalType": "address",
          "name": "to",
          "type": "address"
        },
        {
          "internalType": "uint256",
          "name": "tokenId",
          "type": "uint256"
        }
      ],
      "name": "safeTransferFrom",
      "outputs": [],
      "stateMutability": "nonpayable",
      "type": "function"
    },
    {
      "inputs": [
        {
          "internalType": "address",
          "name": "from",
          "type": "address"
        },
        {
          "internalType": "address",
          "name": "to",
          "type": "address"
        },
        {
          "internalType": "uint256",
          "name": "tokenId",
          "type": "uint256"
        },
        {
          "internalType": "bytes",
          "name": "data",
          "type": "bytes"
        }
      ],
      "name": "safeTransferFrom",
      "outputs": [],
      "stateMutability": "nonpayable",
      "type": "function"
    },
    {
      "inputs": [
        {
          "internalType": "address",
          "name": "operator",
          "type": "address"
        },
        {
          "internalType": "bool",
          "name": "approved",
          "type": "bool"
        }
      ],
      "name": "setApprovalForAll",
      "outputs": [],
      "stateMutability": "nonpayable",
      "type": "function"
    },
    {
      "inputs": [
        {
          "internalType": "uint256",
          "name": "tokenId",
          "type": "uint256"
        },
        {
          "internalType": "address",
          "name": "_user",
          "type": "address"
        },
        {
          "internalType": "uint64",
          "name": "expires",
          "type": "uint64"
        }
      ],
      "name": "setUser",
      "outputs": [],
      "stateMutability": "nonpayable",
      "type": "function"
    },
    {
      "inputs": [
        {
          "internalType": "bytes4",
          "name": "interfaceId",
          "type": "bytes4"
        }
      ],
      "name": "supportsInterface",
      "outputs": [
        {
          "internalType": "bool",
          "name": "",
          "type": "bool"
        }
      ],
      "stateMutability": "view",
      "type": "function"
    },
    {
      "inputs": [],
      "name": "symbol",
      "outputs": [
        {
          "internalType": "string",
          "name": "",
          "type": "string"
        }
      ],
      "stateMutability": "view",
      "type": "function"
    },
    {
      "inputs": [],
      "name": "time",
      "outputs": [
        {
          "internalType": "uint256",
          "name": "",
          "type": "uint256"
        }
      ],
      "stateMutability": "view",
      "type": "function"
    },
    {
      "inputs": [
        {
          "internalType": "uint256",
          "name": "tokenId",
          "type": "uint256"
        }
      ],
      "name": "tokenURI",
      "outputs": [
        {
          "internalType": "string",
          "name": "",
          "type": "string"
        }
      ],
      "stateMutability": "view",
      "type": "function"
    },
    {
      "inputs": [
        {
          "internalType": "address",
          "name": "",
          "type": "address"
        }
      ],
      "name": "totalNoOfProperties",
      "outputs": [
        {
          "internalType": "uint256",
          "name": "",
          "type": "uint256"
        }
      ],
      "stateMutability": "view",
      "type": "function"
    },
    {
      "inputs": [
        {
          "internalType": "address",
          "name": "from",
          "type": "address"
        },
        {
          "internalType": "address",
          "name": "to",
          "type": "address"
        },
        {
          "internalType": "uint256",
          "name": "tokenId",
          "type": "uint256"
        }
      ],
      "name": "transferFrom",
      "outputs": [],
      "stateMutability": "nonpayable",
      "type": "function"
    },
    {
      "inputs": [
        {
          "internalType": "uint256",
          "name": "tokenId",
          "type": "uint256"
        }
      ],
      "name": "userExpires",
      "outputs": [
        {
          "internalType": "uint256",
          "name": "",
          "type": "uint256"
        }
      ],
      "stateMutability": "view",
      "type": "function"
    },
    {
      "inputs": [
        {
          "internalType": "uint256",
          "name": "tokenId",
          "type": "uint256"
        }
      ],
      "name": "userOf",
      "outputs": [
        {
          "internalType": "address",
          "name": "",
          "type": "address"
        }
      ],
      "stateMutability": "view",
      "type": "function"
    },
    {
      "inputs": [
        {
          "internalType": "address",
          "name": "",
          "type": "address"
        },
        {
          "internalType": "uint256",
          "name": "",
          "type": "uint256"
        }
      ],
      "name": "userProperties",
      "outputs": [
        {
          "internalType": "uint256",
          "name": "",
          "type": "uint256"
        }
      ],
      "stateMutability": "view",
      "type": "function"
    }
  ],
  "bytecode": "0x60806040523480156200001157600080fd5b50604051620052b5380380620052b5833981810160405281019062000037919062000202565b818181600090816200004a9190620004d2565b5080600190816200005c9190620004d2565b50505060006006819055505050620005b9565b6000604051905090565b600080fd5b600080fd5b600080fd5b600080fd5b6000601f19601f8301169050919050565b7f4e487b7100000000000000000000000000000000000000000000000000000000600052604160045260246000fd5b620000d8826200008d565b810181811067ffffffffffffffff82111715620000fa57620000f96200009e565b5b80604052505050565b60006200010f6200006f565b90506200011d8282620000cd565b919050565b600067ffffffffffffffff82111562000140576200013f6200009e565b5b6200014b826200008d565b9050602081019050919050565b60005b83811015620001785780820151818401526020810190506200015b565b60008484015250505050565b60006200019b620001958462000122565b62000103565b905082815260208101848484011115620001ba57620001b962000088565b5b620001c784828562000158565b509392505050565b600082601f830112620001e757620001e662000083565b5b8151620001f984826020860162000184565b91505092915050565b600080604083850312156200021c576200021b62000079565b5b600083015167ffffffffffffffff8111156200023d576200023c6200007e565b5b6200024b85828601620001cf565b925050602083015167ffffffffffffffff8111156200026f576200026e6200007e565b5b6200027d85828601620001cf565b9150509250929050565b600081519050919050565b7f4e487b7100000000000000000000000000000000000000000000000000000000600052602260045260246000fd5b60006002820490506001821680620002da57607f821691505b602082108103620002f057620002ef62000292565b5b50919050565b60008190508160005260206000209050919050565b60006020601f8301049050919050565b600082821b905092915050565b6000600883026200035a7fffffffffffffffffffffffffffffffffffffffffffffffffffffffffffffffff826200031b565b6200036686836200031b565b95508019841693508086168417925050509392505050565b6000819050919050565b6000819050919050565b6000620003b3620003ad620003a7846200037e565b62000388565b6200037e565b9050919050565b6000819050919050565b620003cf8362000392565b620003e7620003de82620003ba565b84845462000328565b825550505050565b600090565b620003fe620003ef565b6200040b818484620003c4565b505050565b5b81811015620004335762000427600082620003f4565b60018101905062000411565b5050565b601f82111562000482576200044c81620002f6565b62000457846200030b565b8101602085101562000467578190505b6200047f62000476856200030b565b83018262000410565b50505b505050565b600082821c905092915050565b6000620004a76000198460080262000487565b1980831691505092915050565b6000620004c2838362000494565b9150826002028217905092915050565b620004dd8262000287565b67ffffffffffffffff811115620004f957620004f86200009e565b5b620005058254620002c1565b6200051282828562000437565b600060209050601f8311600181146200054a576000841562000535578287015190505b620005418582620004b4565b865550620005b1565b601f1984166200055a86620002f6565b60005b8281101562000584578489015182556001820191506020850194506020810190506200055d565b86831015620005a45784890151620005a0601f89168262000494565b8355505b6001600288020188555050505b505050505050565b614cec80620005c96000396000f3fe608060405234801561001057600080fd5b50600436106101c45760003560e01c80638c7929f5116100f9578063b88d4fde11610097578063d30fbf7011610071578063d30fbf7014610544578063e030565e14610574578063e2271c9f14610590578063e985e9c5146105c0576101c4565b8063b88d4fde146104c8578063c2f1f14a146104e4578063c87b56dd14610514576101c4565b80639ed27174116100d35780639ed2717414610440578063a22cb46514610470578063a46f14e81461048c578063b7013dc1146104aa576101c4565b80638c7929f5146103bb5780638fc88c48146103f257806395d89b4114610422576101c4565b806323b872dd1161016657806342842e0e1161014057806342842e0e146103215780635d09be601461033d5780636352211e1461035b57806370a082311461038b576101c4565b806323b872dd146102b95780632660d514146102d557806327e235e3146102f1576101c4565b8063081812fc116101a2578063081812fc14610233578063095ea7b31461026357806316ada5471461027f578063225263281461029d576101c4565b806301012072146101c957806301ffc9a7146101e557806306fdde0314610215575b600080fd5b6101e360048036038101906101de919061351c565b6105f0565b005b6101ff60048036038101906101fa919061362f565b6109a4565b60405161020c9190613677565b60405180910390f35b61021d610a1e565b60405161022a9190613711565b60405180910390f35b61024d60048036038101906102489190613733565b610ab0565b60405161025a91906137a1565b60405180910390f35b61027d600480360381019061027891906137e8565b610acc565b005b610287610ae2565b6040516102949190613837565b60405180910390f35b6102b760048036038101906102b29190613733565b610aea565b005b6102d360048036038101906102ce9190613852565b610c51565b005b6102ef60048036038101906102ea91906138e5565b610d53565b005b61030b6004803603810190610306919061394c565b61105a565b6040516103189190613837565b60405180910390f35b61033b60048036038101906103369190613852565b611072565b005b610345611092565b6040516103529190613b70565b60405180910390f35b61037560048036038101906103709190613733565b6114d0565b60405161038291906137a1565b60405180910390f35b6103a560048036038101906103a0919061394c565b6114e2565b6040516103b29190613837565b60405180910390f35b6103d560048036038101906103d09190613733565b61159c565b6040516103e9989796959493929190613ba1565b60405180910390f35b61040c60048036038101906104079190613733565b6117d0565b6040516104199190613837565b60405180910390f35b61042a611872565b6040516104379190613711565b60405180910390f35b61045a6004803603810190610455919061394c565b611904565b6040516104679190613b70565b60405180910390f35b61048a60048036038101906104859190613c60565b611da2565b005b610494611db8565b6040516104a19190613b70565b60405180910390f35b6104b26121de565b6040516104bf9190613837565b60405180910390f35b6104e260048036038101906104dd9190613d41565b612225565b005b6104fe60048036038101906104f99190613733565b612242565b60405161050b91906137a1565b60405180910390f35b61052e60048036038101906105299190613733565b6122ce565b60405161053b9190613711565b60405180910390f35b61055e6004803603810190610559919061394c565b612337565b60405161056b9190613837565b60405180910390f35b61058e60048036038101906105899190613dc4565b61234f565b005b6105aa60048036038101906105a591906137e8565b612429565b6040516105b79190613837565b60405180910390f35b6105da60048036038101906105d59190613e17565b61245a565b6040516105e79190613677565b60405180910390f35b600060065490506006600081548092919061060a90613e86565b9190505550604051806101000160405280600073ffffffffffffffffffffffffffffffffffffffff168152602001600067ffffffffffffffff1681526020018681526020018581526020018481526020018381526020018281526020013373ffffffffffffffffffffffffffffffffffffffff168152506007600083815260200190815260200160002060008201518160000160006101000a81548173ffffffffffffffffffffffffffffffffffffffff021916908373ffffffffffffffffffffffffffffffffffffffff16021790555060208201518160000160146101000a81548167ffffffffffffffff021916908367ffffffffffffffff160217905550604082015181600101908161071f91906140da565b50606082015181600201908161073591906140da565b506080820151816003015560a082015181600401908161075591906140da565b5060c0820151816005015560e08201518160060160006101000a81548173ffffffffffffffffffffffffffffffffffffffff021916908373ffffffffffffffffffffffffffffffffffffffff160217905550905050600860003373ffffffffffffffffffffffffffffffffffffffff1673ffffffffffffffffffffffffffffffffffffffff168152602001908152602001600020819080600181540180825580915050600190039060005260206000200160009091909190915055600960003373ffffffffffffffffffffffffffffffffffffffff1673ffffffffffffffffffffffffffffffffffffffff168152602001908152602001600020600081548092919061086090613e86565b919050555061086f33826124ee565b73b3971bcef2d791bc4027bbfedfb47319a4aaaaaa73ffffffffffffffffffffffffffffffffffffffff1663ba3d69d77350b040ac046e66a91d3b0db103e025131e29ade9338888886040516020016108ca93929190614313565b6040516020818303038152906040526040516020016108e991906144e0565b6040516020818303038152906040526040518463ffffffff1660e01b815260040161091693929190614583565b600060405180830381600087803b15801561093057600080fd5b505af1158015610944573d6000803e3d6000fd5b505050503373ffffffffffffffffffffffffffffffffffffffff16817f4d51393837a57b673919bff7255423cbd8f5dff4e6bb6f0dcbc37f586dafc46c8787868860405161099594939291906145c1565b60405180910390a35050505050565b60007fad092b5c000000000000000000000000000000000000000000000000000000007bffffffffffffffffffffffffffffffffffffffffffffffffffffffff1916827bffffffffffffffffffffffffffffffffffffffffffffffffffffffff19161480610a175750610a16826125e7565b5b9050919050565b606060008054610a2d90613efd565b80601f0160208091040260200160405190810160405280929190818152602001828054610a5990613efd565b8015610aa65780601f10610a7b57610100808354040283529160200191610aa6565b820191906000526020600020905b815481529060010190602001808311610a8957829003601f168201915b5050505050905090565b6000610abb826126c9565b50610ac582612751565b9050919050565b610ade8282610ad961278e565b612796565b5050565b600042905090565b80600a60003373ffffffffffffffffffffffffffffffffffffffff1673ffffffffffffffffffffffffffffffffffffffff1681526020019081526020016000206000828254610b39919061461b565b9250508190555073b3971bcef2d791bc4027bbfedfb47319a4aaaaaa73ffffffffffffffffffffffffffffffffffffffff1663ba3d69d77350b040ac046e66a91d3b0db103e025131e29ade93384604051602001610b9791906146e7565b604051602081830303815290604052604051602001610bb69190614764565b6040516020818303038152906040526040518463ffffffff1660e01b8152600401610be393929190614583565b600060405180830381600087803b158015610bfd57600080fd5b505af1158015610c11573d6000803e3d6000fd5b505050507fe96dd7a15a3974e8e7d5eb80de2cb6fd69907a1ee089170cd976cfffaedfa8ac3382604051610c469291906147bd565b60405180910390a150565b600073ffffffffffffffffffffffffffffffffffffffff168273ffffffffffffffffffffffffffffffffffffffff1603610cc35760006040517f64a0ae92000000000000000000000000000000000000000000000000000000008152600401610cba91906137a1565b60405180910390fd5b6000610cd78383610cd261278e565b6127a8565b90508373ffffffffffffffffffffffffffffffffffffffff168173ffffffffffffffffffffffffffffffffffffffff1614610d4d578382826040517f64283d7b000000000000000000000000000000000000000000000000000000008152600401610d44939291906147e6565b60405180910390fd5b50505050565b60076000858152602001908152602001600020600301548114610dab576040517f08c379a0000000000000000000000000000000000000000000000000000000008152600401610da29061488f565b60405180910390fd5b80600a60008573ffffffffffffffffffffffffffffffffffffffff1673ffffffffffffffffffffffffffffffffffffffff168152602001908152602001600020541015610e2d576040517f08c379a0000000000000000000000000000000000000000000000000000000008152600401610e2490614921565b60405180910390fd5b80600a60008573ffffffffffffffffffffffffffffffffffffffff1673ffffffffffffffffffffffffffffffffffffffff1681526020019081526020016000206000828254610e7c9190614941565b92505081905550610e8e84848461234f565b80600a6000610e9c876114d0565b73ffffffffffffffffffffffffffffffffffffffff1673ffffffffffffffffffffffffffffffffffffffff1681526020019081526020016000206000828254610ee5919061461b565b9250508190555073b3971bcef2d791bc4027bbfedfb47319a4aaaaaa73ffffffffffffffffffffffffffffffffffffffff1663ba3d69d77350b040ac046e66a91d3b0db103e025131e29ade93360076000898152602001908152602001600020600101600760008a8152602001908152602001600020600201600760008b815260200190815260200160002060030154604051602001610f8793929190614a44565b604051602081830303815290604052604051602001610fa69190614ae6565b6040516020818303038152906040526040518463ffffffff1660e01b8152600401610fd393929190614583565b600060405180830381600087803b158015610fed57600080fd5b505af1158015611001573d6000803e3d6000fd5b505050508273ffffffffffffffffffffffffffffffffffffffff16847fddf30198c8f217b33732c1d9c4f25fef5319d97880bd3b5f777aad155eb665998460405161104c9190614b70565b60405180910390a350505050565b600a6020528060005260406000206000915090505481565b61108d83838360405180602001604052806000815250612225565b505050565b60606000600960003373ffffffffffffffffffffffffffffffffffffffff1673ffffffffffffffffffffffffffffffffffffffff1681526020019081526020016000205467ffffffffffffffff8111156110ef576110ee6133bb565b5b60405190808252806020026020018201604052801561112857816020015b611115613311565b81526020019060019003908161110d5790505b50905060005b600960003373ffffffffffffffffffffffffffffffffffffffff1673ffffffffffffffffffffffffffffffffffffffff168152602001908152602001600020548110156114c85760076000600860003373ffffffffffffffffffffffffffffffffffffffff1673ffffffffffffffffffffffffffffffffffffffff16815260200190815260200160002083815481106111ca576111c9614b8b565b5b90600052602060002001548152602001908152602001600020604051806101000160405290816000820160009054906101000a900473ffffffffffffffffffffffffffffffffffffffff1673ffffffffffffffffffffffffffffffffffffffff1673ffffffffffffffffffffffffffffffffffffffff1681526020016000820160149054906101000a900467ffffffffffffffff1667ffffffffffffffff1667ffffffffffffffff16815260200160018201805461128790613efd565b80601f01602080910402602001604051908101604052809291908181526020018280546112b390613efd565b80156113005780601f106112d557610100808354040283529160200191611300565b820191906000526020600020905b8154815290600101906020018083116112e357829003601f168201915b5050505050815260200160028201805461131990613efd565b80601f016020809104026020016040519081016040528092919081815260200182805461134590613efd565b80156113925780601f1061136757610100808354040283529160200191611392565b820191906000526020600020905b81548152906001019060200180831161137557829003601f168201915b50505050508152602001600382015481526020016004820180546113b590613efd565b80601f01602080910402602001604051908101604052809291908181526020018280546113e190613efd565b801561142e5780601f106114035761010080835404028352916020019161142e565b820191906000526020600020905b81548152906001019060200180831161141157829003601f168201915b50505050508152602001600582015481526020016006820160009054906101000a900473ffffffffffffffffffffffffffffffffffffffff1673ffffffffffffffffffffffffffffffffffffffff1673ffffffffffffffffffffffffffffffffffffffff16815250508282815181106114aa576114a9614b8b565b5b602002602001018190525080806114c090613e86565b91505061112e565b508091505090565b60006114db826126c9565b9050919050565b60008073ffffffffffffffffffffffffffffffffffffffff168273ffffffffffffffffffffffffffffffffffffffff16036115555760006040517f89c62b6400000000000000000000000000000000000000000000000000000000815260040161154c91906137a1565b60405180910390fd5b600360008373ffffffffffffffffffffffffffffffffffffffff1673ffffffffffffffffffffffffffffffffffffffff168152602001908152602001600020549050919050565b60076020528060005260406000206000915090508060000160009054906101000a900473ffffffffffffffffffffffffffffffffffffffff16908060000160149054906101000a900467ffffffffffffffff16908060010180546115ff90613efd565b80601f016020809104026020016040519081016040528092919081815260200182805461162b90613efd565b80156116785780601f1061164d57610100808354040283529160200191611678565b820191906000526020600020905b81548152906001019060200180831161165b57829003601f168201915b50505050509080600201805461168d90613efd565b80601f01602080910402602001604051908101604052809291908181526020018280546116b990613efd565b80156117065780601f106116db57610100808354040283529160200191611706565b820191906000526020600020905b8154815290600101906020018083116116e957829003601f168201915b50505050509080600301549080600401805461172190613efd565b80601f016020809104026020016040519081016040528092919081815260200182805461174d90613efd565b801561179a5780601f1061176f5761010080835404028352916020019161179a565b820191906000526020600020905b81548152906001019060200180831161177d57829003601f168201915b5050505050908060050154908060060160009054906101000a900473ffffffffffffffffffffffffffffffffffffffff16905088565b6000426007600084815260200190815260200160002060000160149054906101000a900467ffffffffffffffff1667ffffffffffffffff1610611849576007600083815260200190815260200160002060000160149054906101000a900467ffffffffffffffff1667ffffffffffffffff16905061186d565b7fffffffffffffffffffffffffffffffffffffffffffffffffffffffffffffffff90505b919050565b60606001805461188190613efd565b80601f01602080910402602001604051908101604052809291908181526020018280546118ad90613efd565b80156118fa5780601f106118cf576101008083540402835291602001916118fa565b820191906000526020600020905b8154815290600101906020018083116118dd57829003601f168201915b5050505050905090565b6060600060065490506000805b828110156119b257426007600083815260200190815260200160002060000160149054906101000a900467ffffffffffffffff1667ffffffffffffffff161061199f5761195d81612242565b73ffffffffffffffffffffffffffffffffffffffff168573ffffffffffffffffffffffffffffffffffffffff160361199e57818061199a90613e86565b9250505b5b80806119aa90613e86565b915050611911565b5060008167ffffffffffffffff8111156119cf576119ce6133bb565b5b604051908082528060200260200182016040528015611a0857816020015b6119f5613311565b8152602001906001900390816119ed5790505b5090506000805b84811015611d9557426007600083815260200190815260200160002060000160149054906101000a900467ffffffffffffffff1667ffffffffffffffff1610611d8257611a5b81612242565b73ffffffffffffffffffffffffffffffffffffffff168773ffffffffffffffffffffffffffffffffffffffff1603611d815760076000828152602001908152602001600020604051806101000160405290816000820160009054906101000a900473ffffffffffffffffffffffffffffffffffffffff1673ffffffffffffffffffffffffffffffffffffffff1673ffffffffffffffffffffffffffffffffffffffff1681526020016000820160149054906101000a900467ffffffffffffffff1667ffffffffffffffff1667ffffffffffffffff168152602001600182018054611b4490613efd565b80601f0160208091040260200160405190810160405280929190818152602001828054611b7090613efd565b8015611bbd5780601f10611b9257610100808354040283529160200191611bbd565b820191906000526020600020905b815481529060010190602001808311611ba057829003601f168201915b50505050508152602001600282018054611bd690613efd565b80601f0160208091040260200160405190810160405280929190818152602001828054611c0290613efd565b8015611c4f5780601f10611c2457610100808354040283529160200191611c4f565b820191906000526020600020905b815481529060010190602001808311611c3257829003601f168201915b5050505050815260200160038201548152602001600482018054611c7290613efd565b80601f0160208091040260200160405190810160405280929190818152602001828054611c9e90613efd565b8015611ceb5780601f10611cc057610100808354040283529160200191611ceb565b820191906000526020600020905b815481529060010190602001808311611cce57829003601f168201915b50505050508152602001600582015481526020016006820160009054906101000a900473ffffffffffffffffffffffffffffffffffffffff1673ffffffffffffffffffffffffffffffffffffffff1673ffffffffffffffffffffffffffffffffffffffff1681525050838381518110611d6757611d66614b8b565b5b60200260200101819052508180611d7d90613e86565b9250505b5b8080611d8d90613e86565b915050611a0f565b5081945050505050919050565b611db4611dad61278e565b83836129c2565b5050565b6060600060065490506000805b82811015611e2b57426007600083815260200190815260200160002060000160149054906101000a900467ffffffffffffffff1667ffffffffffffffff161015611e18578180611e1490613e86565b9250505b8080611e2390613e86565b915050611dc5565b5060008167ffffffffffffffff811115611e4857611e476133bb565b5b604051908082528060200260200182016040528015611e8157816020015b611e6e613311565b815260200190600190039081611e665790505b5090506000805b848110156121d357426007600083815260200190815260200160002060000160149054906101000a900467ffffffffffffffff1667ffffffffffffffff1610156121c05760076000828152602001908152602001600020604051806101000160405290816000820160009054906101000a900473ffffffffffffffffffffffffffffffffffffffff1673ffffffffffffffffffffffffffffffffffffffff1673ffffffffffffffffffffffffffffffffffffffff1681526020016000820160149054906101000a900467ffffffffffffffff1667ffffffffffffffff1667ffffffffffffffff168152602001600182018054611f8390613efd565b80601f0160208091040260200160405190810160405280929190818152602001828054611faf90613efd565b8015611ffc5780601f10611fd157610100808354040283529160200191611ffc565b820191906000526020600020905b815481529060010190602001808311611fdf57829003601f168201915b5050505050815260200160028201805461201590613efd565b80601f016020809104026020016040519081016040528092919081815260200182805461204190613efd565b801561208e5780601f106120635761010080835404028352916020019161208e565b820191906000526020600020905b81548152906001019060200180831161207157829003601f168201915b50505050508152602001600382015481526020016004820180546120b190613efd565b80601f01602080910402602001604051908101604052809291908181526020018280546120dd90613efd565b801561212a5780601f106120ff5761010080835404028352916020019161212a565b820191906000526020600020905b81548152906001019060200180831161210d57829003601f168201915b50505050508152602001600582015481526020016006820160009054906101000a900473ffffffffffffffffffffffffffffffffffffffff1673ffffffffffffffffffffffffffffffffffffffff1673ffffffffffffffffffffffffffffffffffffffff16815250508383815181106121a6576121a5614b8b565b5b602002602001018190525081806121bc90613e86565b9250505b80806121cb90613e86565b915050611e88565b508194505050505090565b6000600a60003373ffffffffffffffffffffffffffffffffffffffff1673ffffffffffffffffffffffffffffffffffffffff16815260200190815260200160002054905090565b612230848484610c51565b61223c84848484612b31565b50505050565b6000426007600084815260200190815260200160002060000160149054906101000a900467ffffffffffffffff1667ffffffffffffffff16106122bd576007600083815260200190815260200160002060000160009054906101000a900473ffffffffffffffffffffffffffffffffffffffff1690506122c9565b6122c6826114d0565b90505b919050565b60606122d9826126c9565b5060006122e4612ce8565b90506000815111612304576040518060200160405280600081525061232f565b8061230e84612cff565b60405160200161231f929190614bba565b6040516020818303038152906040525b915050919050565b60096020528060005260406000206000915090505481565b6000600760008581526020019081526020016000209050828160000160006101000a81548173ffffffffffffffffffffffffffffffffffffffff021916908373ffffffffffffffffffffffffffffffffffffffff160217905550818160000160146101000a81548167ffffffffffffffff021916908367ffffffffffffffff1602179055508273ffffffffffffffffffffffffffffffffffffffff16847f4e06b4e7000e659094299b3533b47b6aa8ad048e95e872d23d1f4ee55af89cfe8460405161241b9190614bde565b60405180910390a350505050565b6008602052816000526040600020818154811061244557600080fd5b90600052602060002001600091509150505481565b6000600560008473ffffffffffffffffffffffffffffffffffffffff1673ffffffffffffffffffffffffffffffffffffffff16815260200190815260200160002060008373ffffffffffffffffffffffffffffffffffffffff1673ffffffffffffffffffffffffffffffffffffffff16815260200190815260200160002060009054906101000a900460ff16905092915050565b600073ffffffffffffffffffffffffffffffffffffffff168273ffffffffffffffffffffffffffffffffffffffff16036125605760006040517f64a0ae9200000000000000000000000000000000000000000000000000000000815260040161255791906137a1565b60405180910390fd5b600061256e838360006127a8565b9050600073ffffffffffffffffffffffffffffffffffffffff168173ffffffffffffffffffffffffffffffffffffffff16146125e25760006040517f73c6ac6e0000000000000000000000000000000000000000000000000000000081526004016125d991906137a1565b60405180910390fd5b505050565b60007f80ac58cd000000000000000000000000000000000000000000000000000000007bffffffffffffffffffffffffffffffffffffffffffffffffffffffff1916827bffffffffffffffffffffffffffffffffffffffffffffffffffffffff191614806126b257507f5b5e139f000000000000000000000000000000000000000000000000000000007bffffffffffffffffffffffffffffffffffffffffffffffffffffffff1916827bffffffffffffffffffffffffffffffffffffffffffffffffffffffff1916145b806126c257506126c182612dcd565b5b9050919050565b6000806126d583612e37565b9050600073ffffffffffffffffffffffffffffffffffffffff168173ffffffffffffffffffffffffffffffffffffffff160361274857826040517f7e27328900000000000000000000000000000000000000000000000000000000815260040161273f9190613837565b60405180910390fd5b80915050919050565b60006004600083815260200190815260200160002060009054906101000a900473ffffffffffffffffffffffffffffffffffffffff169050919050565b600033905090565b6127a38383836001612e74565b505050565b6000806127b484612e37565b9050600073ffffffffffffffffffffffffffffffffffffffff168373ffffffffffffffffffffffffffffffffffffffff16146127f6576127f5818486613039565b5b600073ffffffffffffffffffffffffffffffffffffffff168173ffffffffffffffffffffffffffffffffffffffff161461288757612838600085600080612e74565b6001600360008373ffffffffffffffffffffffffffffffffffffffff1673ffffffffffffffffffffffffffffffffffffffff168152602001908152602001600020600082825403925050819055505b600073ffffffffffffffffffffffffffffffffffffffff168573ffffffffffffffffffffffffffffffffffffffff161461290a576001600360008773ffffffffffffffffffffffffffffffffffffffff1673ffffffffffffffffffffffffffffffffffffffff168152602001908152602001600020600082825401925050819055505b846002600086815260200190815260200160002060006101000a81548173ffffffffffffffffffffffffffffffffffffffff021916908373ffffffffffffffffffffffffffffffffffffffff160217905550838573ffffffffffffffffffffffffffffffffffffffff168273ffffffffffffffffffffffffffffffffffffffff167fddf252ad1be2c89b69c2b068fc378daa952ba7f163c4a11628f55a4df523b3ef60405160405180910390a4809150509392505050565b600073ffffffffffffffffffffffffffffffffffffffff168273ffffffffffffffffffffffffffffffffffffffff1603612a3357816040517f5b08ba18000000000000000000000000000000000000000000000000000000008152600401612a2a91906137a1565b60405180910390fd5b80600560008573ffffffffffffffffffffffffffffffffffffffff1673ffffffffffffffffffffffffffffffffffffffff16815260200190815260200160002060008473ffffffffffffffffffffffffffffffffffffffff1673ffffffffffffffffffffffffffffffffffffffff16815260200190815260200160002060006101000a81548160ff0219169083151502179055508173ffffffffffffffffffffffffffffffffffffffff168373ffffffffffffffffffffffffffffffffffffffff167f17307eab39ab6107e8899845ad3d59bd9653f200f220920489ca2b5937696c3183604051612b249190613677565b60405180910390a3505050565b60008373ffffffffffffffffffffffffffffffffffffffff163b1115612ce2578273ffffffffffffffffffffffffffffffffffffffff1663150b7a02612b7561278e565b8685856040518563ffffffff1660e01b8152600401612b979493929190614bf9565b6020604051808303816000875af1925050508015612bd357506040513d601f19601f82011682018060405250810190612bd09190614c5a565b60015b612c57573d8060008114612c03576040519150601f19603f3d011682016040523d82523d6000602084013e612c08565b606091505b506000815103612c4f57836040517f64a0ae92000000000000000000000000000000000000000000000000000000008152600401612c4691906137a1565b60405180910390fd5b805181602001fd5b63150b7a0260e01b7bffffffffffffffffffffffffffffffffffffffffffffffffffffffff1916817bffffffffffffffffffffffffffffffffffffffffffffffffffffffff191614612ce057836040517f64a0ae92000000000000000000000000000000000000000000000000000000008152600401612cd791906137a1565b60405180910390fd5b505b50505050565b606060405180602001604052806000815250905090565b606060006001612d0e846130fd565b01905060008167ffffffffffffffff811115612d2d57612d2c6133bb565b5b6040519080825280601f01601f191660200182016040528015612d5f5781602001600182028036833780820191505090505b509050600082602001820190505b600115612dc2578080600190039150507f3031323334353637383961626364656600000000000000000000000000000000600a86061a8153600a8581612db657612db5614c87565b5b04945060008503612d6d575b819350505050919050565b60007f01ffc9a7000000000000000000000000000000000000000000000000000000007bffffffffffffffffffffffffffffffffffffffffffffffffffffffff1916827bffffffffffffffffffffffffffffffffffffffffffffffffffffffff1916149050919050565b60006002600083815260200190815260200160002060009054906101000a900473ffffffffffffffffffffffffffffffffffffffff169050919050565b8080612ead5750600073ffffffffffffffffffffffffffffffffffffffff168273ffffffffffffffffffffffffffffffffffffffff1614155b15612fe1576000612ebd846126c9565b9050600073ffffffffffffffffffffffffffffffffffffffff168373ffffffffffffffffffffffffffffffffffffffff1614158015612f2857508273ffffffffffffffffffffffffffffffffffffffff168173ffffffffffffffffffffffffffffffffffffffff1614155b8015612f3b5750612f39818461245a565b155b15612f7d57826040517fa9fbf51f000000000000000000000000000000000000000000000000000000008152600401612f7491906137a1565b60405180910390fd5b8115612fdf57838573ffffffffffffffffffffffffffffffffffffffff168273ffffffffffffffffffffffffffffffffffffffff167f8c5be1e5ebec7d5bd14f71427d1e84f3dd0314c0f7b2291e5b200ac8c7c3b92560405160405180910390a45b505b836004600085815260200190815260200160002060006101000a81548173ffffffffffffffffffffffffffffffffffffffff021916908373ffffffffffffffffffffffffffffffffffffffff16021790555050505050565b613044838383613250565b6130f857600073ffffffffffffffffffffffffffffffffffffffff168373ffffffffffffffffffffffffffffffffffffffff16036130b957806040517f7e2732890000000000000000000000000000000000000000000000000000000081526004016130b09190613837565b60405180910390fd5b81816040517f177e802f0000000000000000000000000000000000000000000000000000000081526004016130ef9291906147bd565b60405180910390fd5b505050565b600080600090507a184f03e93ff9f4daa797ed6e38ed64bf6a1f010000000000000000831061315b577a184f03e93ff9f4daa797ed6e38ed64bf6a1f010000000000000000838161315157613150614c87565b5b0492506040810190505b6d04ee2d6d415b85acef81000000008310613198576d04ee2d6d415b85acef8100000000838161318e5761318d614c87565b5b0492506020810190505b662386f26fc1000083106131c757662386f26fc1000083816131bd576131bc614c87565b5b0492506010810190505b6305f5e10083106131f0576305f5e10083816131e6576131e5614c87565b5b0492506008810190505b612710831061321557612710838161320b5761320a614c87565b5b0492506004810190505b60648310613238576064838161322e5761322d614c87565b5b0492506002810190505b600a8310613247576001810190505b80915050919050565b60008073ffffffffffffffffffffffffffffffffffffffff168373ffffffffffffffffffffffffffffffffffffffff161415801561330857508273ffffffffffffffffffffffffffffffffffffffff168473ffffffffffffffffffffffffffffffffffffffff1614806132c957506132c8848461245a565b5b8061330757508273ffffffffffffffffffffffffffffffffffffffff166132ef83612751565b73ffffffffffffffffffffffffffffffffffffffff16145b5b90509392505050565b604051806101000160405280600073ffffffffffffffffffffffffffffffffffffffff168152602001600067ffffffffffffffff1681526020016060815260200160608152602001600081526020016060815260200160008152602001600073ffffffffffffffffffffffffffffffffffffffff1681525090565b6000604051905090565b600080fd5b600080fd5b600080fd5b600080fd5b6000601f19601f8301169050919050565b7f4e487b7100000000000000000000000000000000000000000000000000000000600052604160045260246000fd5b6133f3826133aa565b810181811067ffffffffffffffff82111715613412576134116133bb565b5b80604052505050565b600061342561338c565b905061343182826133ea565b919050565b600067ffffffffffffffff821115613451576134506133bb565b5b61345a826133aa565b9050602081019050919050565b82818337600083830152505050565b600061348961348484613436565b61341b565b9050828152602081018484840111156134a5576134a46133a5565b5b6134b0848285613467565b509392505050565b600082601f8301126134cd576134cc6133a0565b5b81356134dd848260208601613476565b91505092915050565b6000819050919050565b6134f9816134e6565b811461350457600080fd5b50565b600081359050613516816134f0565b92915050565b6000806000806080858703121561353657613535613396565b5b600085013567ffffffffffffffff8111156135545761355361339b565b5b613560878288016134b8565b945050602085013567ffffffffffffffff8111156135815761358061339b565b5b61358d878288016134b8565b935050604061359e87828801613507565b925050606085013567ffffffffffffffff8111156135bf576135be61339b565b5b6135cb878288016134b8565b91505092959194509250565b60007fffffffff0000000000000000000000000000000000000000000000000000000082169050919050565b61360c816135d7565b811461361757600080fd5b50565b60008135905061362981613603565b92915050565b60006020828403121561364557613644613396565b5b60006136538482850161361a565b91505092915050565b60008115159050919050565b6136718161365c565b82525050565b600060208201905061368c6000830184613668565b92915050565b600081519050919050565b600082825260208201905092915050565b60005b838110156136cc5780820151818401526020810190506136b1565b60008484015250505050565b60006136e382613692565b6136ed818561369d565b93506136fd8185602086016136ae565b613706816133aa565b840191505092915050565b6000602082019050818103600083015261372b81846136d8565b905092915050565b60006020828403121561374957613748613396565b5b600061375784828501613507565b91505092915050565b600073ffffffffffffffffffffffffffffffffffffffff82169050919050565b600061378b82613760565b9050919050565b61379b81613780565b82525050565b60006020820190506137b66000830184613792565b92915050565b6137c581613780565b81146137d057600080fd5b50565b6000813590506137e2816137bc565b92915050565b600080604083850312156137ff576137fe613396565b5b600061380d858286016137d3565b925050602061381e85828601613507565b9150509250929050565b613831816134e6565b82525050565b600060208201905061384c6000830184613828565b92915050565b60008060006060848603121561386b5761386a613396565b5b6000613879868287016137d3565b935050602061388a868287016137d3565b925050604061389b86828701613507565b9150509250925092565b600067ffffffffffffffff82169050919050565b6138c2816138a5565b81146138cd57600080fd5b50565b6000813590506138df816138b9565b92915050565b600080600080608085870312156138ff576138fe613396565b5b600061390d87828801613507565b945050602061391e878288016137d3565b935050604061392f878288016138d0565b925050606061394087828801613507565b91505092959194509250565b60006020828403121561396257613961613396565b5b6000613970848285016137d3565b91505092915050565b600081519050919050565b600082825260208201905092915050565b6000819050602082019050919050565b6139ae81613780565b82525050565b6139bd816138a5565b82525050565b600082825260208201905092915050565b60006139df82613692565b6139e981856139c3565b93506139f98185602086016136ae565b613a02816133aa565b840191505092915050565b613a16816134e6565b82525050565b600061010083016000830151613a3560008601826139a5565b506020830151613a4860208601826139b4565b5060408301518482036040860152613a6082826139d4565b91505060608301518482036060860152613a7a82826139d4565b9150506080830151613a8f6080860182613a0d565b5060a083015184820360a0860152613aa782826139d4565b91505060c0830151613abc60c0860182613a0d565b5060e0830151613acf60e08601826139a5565b508091505092915050565b6000613ae68383613a1c565b905092915050565b6000602082019050919050565b6000613b0682613979565b613b108185613984565b935083602082028501613b2285613995565b8060005b85811015613b5e5784840389528151613b3f8582613ada565b9450613b4a83613aee565b925060208a01995050600181019050613b26565b50829750879550505050505092915050565b60006020820190508181036000830152613b8a8184613afb565b905092915050565b613b9b816138a5565b82525050565b600061010082019050613bb7600083018b613792565b613bc4602083018a613b92565b8181036040830152613bd681896136d8565b90508181036060830152613bea81886136d8565b9050613bf96080830187613828565b81810360a0830152613c0b81866136d8565b9050613c1a60c0830185613828565b613c2760e0830184613792565b9998505050505050505050565b613c3d8161365c565b8114613c4857600080fd5b50565b600081359050613c5a81613c34565b92915050565b60008060408385031215613c7757613c76613396565b5b6000613c85858286016137d3565b9250506020613c9685828601613c4b565b9150509250929050565b600067ffffffffffffffff821115613cbb57613cba6133bb565b5b613cc4826133aa565b9050602081019050919050565b6000613ce4613cdf84613ca0565b61341b565b905082815260208101848484011115613d0057613cff6133a5565b5b613d0b848285613467565b509392505050565b600082601f830112613d2857613d276133a0565b5b8135613d38848260208601613cd1565b91505092915050565b60008060008060808587031215613d5b57613d5a613396565b5b6000613d69878288016137d3565b9450506020613d7a878288016137d3565b9350506040613d8b87828801613507565b925050606085013567ffffffffffffffff811115613dac57613dab61339b565b5b613db887828801613d13565b91505092959194509250565b600080600060608486031215613ddd57613ddc613396565b5b6000613deb86828701613507565b9350506020613dfc868287016137d3565b9250506040613e0d868287016138d0565b9150509250925092565b60008060408385031215613e2e57613e2d613396565b5b6000613e3c858286016137d3565b9250506020613e4d858286016137d3565b9150509250929050565b7f4e487b7100000000000000000000000000000000000000000000000000000000600052601160045260246000fd5b6000613e91826134e6565b91507fffffffffffffffffffffffffffffffffffffffffffffffffffffffffffffffff8203613ec357613ec2613e57565b5b600182019050919050565b7f4e487b7100000000000000000000000000000000000000000000000000000000600052602260045260246000fd5b60006002820490506001821680613f1557607f821691505b602082108103613f2857613f27613ece565b5b50919050565b60008190508160005260206000209050919050565b60006020601f8301049050919050565b600082821b905092915050565b600060088302613f907fffffffffffffffffffffffffffffffffffffffffffffffffffffffffffffffff82613f53565b613f9a8683613f53565b95508019841693508086168417925050509392505050565b6000819050919050565b6000613fd7613fd2613fcd846134e6565b613fb2565b6134e6565b9050919050565b6000819050919050565b613ff183613fbc565b614005613ffd82613fde565b848454613f60565b825550505050565b600090565b61401a61400d565b614025818484613fe8565b505050565b5b818110156140495761403e600082614012565b60018101905061402b565b5050565b601f82111561408e5761405f81613f2e565b61406884613f43565b81016020851015614077578190505b61408b61408385613f43565b83018261402a565b50505b505050565b600082821c905092915050565b60006140b160001984600802614093565b1980831691505092915050565b60006140ca83836140a0565b9150826002028217905092915050565b6140e382613692565b67ffffffffffffffff8111156140fc576140fb6133bb565b5b6141068254613efd565b61411182828561404d565b600060209050601f8311600181146141445760008415614132578287015190505b61413c85826140be565b8655506141a4565b601f19841661415286613f2e565b60005b8281101561417a57848901518255600182019150602085019450602081019050614155565b868310156141975784890151614193601f8916826140a0565b8355505b6001600288020188555050505b505050505050565b600081905092915050565b7f50726f70657274792052656769737465726564205375636365737366756c6c7960008201527f2000000000000000000000000000000000000000000000000000000000000000602082015250565b60006142136021836141ac565b915061421e826141b7565b602182019050919050565b600061423482613692565b61423e81856141ac565b935061424e8185602086016136ae565b80840191505092915050565b7f2061742000000000000000000000000000000000000000000000000000000000600082015250565b60006142906004836141ac565b915061429b8261425a565b600482019050919050565b7f20666f7220000000000000000000000000000000000000000000000000000000600082015250565b60006142dc6005836141ac565b91506142e7826142a6565b600582019050919050565b6000819050919050565b61430d614308826134e6565b6142f2565b82525050565b600061431e82614206565b915061432a8286614229565b915061433582614283565b91506143418285614229565b915061434c826142cf565b915061435882846142fc565b602082019150819050949350505050565b7f3000000000000000000000000000000000000000000000000000000000000000600082015250565b600061439f6001836141ac565b91506143aa82614369565b600182019050919050565b7f2b00000000000000000000000000000000000000000000000000000000000000600082015250565b60006143eb6001836141ac565b91506143f6826143b5565b600182019050919050565b7f3300000000000000000000000000000000000000000000000000000000000000600082015250565b60006144376001836141ac565b915061444282614401565b600182019050919050565b7f50726f706572747920526567697374726174696f6e2053746174757300000000600082015250565b6000614483601c836141ac565b915061448e8261444d565b601c82019050919050565b600081519050919050565b600081905092915050565b60006144ba82614499565b6144c481856144a4565b93506144d48185602086016136ae565b80840191505092915050565b60006144eb82614392565b91506144f6826143de565b91506145018261442a565b915061450c826143de565b915061451782614476565b9150614522826143de565b915061452e82846144af565b915081905092915050565b600082825260208201905092915050565b600061455582614499565b61455f8185614539565b935061456f8185602086016136ae565b614578816133aa565b840191505092915050565b60006060820190506145986000830186613792565b6145a56020830185613792565b81810360408301526145b7818461454a565b9050949350505050565b600060808201905081810360008301526145db81876136d8565b905081810360208301526145ef81866136d8565b9050818103604083015261460381856136d8565b90506146126060830184613828565b95945050505050565b6000614626826134e6565b9150614631836134e6565b925082820190508082111561464957614648613e57565b5b92915050565b7f596f75722062616c616e6365206f662000000000000000000000000000000000600082015250565b60006146856010836141ac565b91506146908261464f565b601082019050919050565b7f20686173206265656e207375636365737366756c6c7920616464656421000000600082015250565b60006146d1601d836141ac565b91506146dc8261469b565b601d82019050919050565b60006146f282614678565b91506146fe82846142fc565b60208201915061470d826146c4565b915081905092915050565b7f42616c616e636520537461747573000000000000000000000000000000000000600082015250565b600061474e600e836141ac565b915061475982614718565b600e82019050919050565b600061476f82614392565b915061477a826143de565b91506147858261442a565b9150614790826143de565b915061479b82614741565b91506147a6826143de565b91506147b282846144af565b915081905092915050565b60006040820190506147d26000830185613792565b6147df6020830184613828565b9392505050565b60006060820190506147fb6000830186613792565b6148086020830185613828565b6148156040830184613792565b949350505050565b7f506c65617365207061792074686520636f7272656374207072696365206f662060008201527f7468652050726f70657274790000000000000000000000000000000000000000602082015250565b6000614879602c8361369d565b91506148848261481d565b604082019050919050565b600060208201905081810360008301526148a88161486c565b9050919050565b7f506c65617365206164642073756666696369656e742062616c616e636520746f60008201527f20796f7572206163636f756e7400000000000000000000000000000000000000602082015250565b600061490b602d8361369d565b9150614916826148af565b604082019050919050565b6000602082019050818103600083015261493a816148fe565b9050919050565b600061494c826134e6565b9150614957836134e6565b925082820390508181111561496f5761496e613e57565b5b92915050565b7f50726f70657274792052656e746564205375636365737366756c6c7920000000600082015250565b60006149ab601d836141ac565b91506149b682614975565b601d82019050919050565b600081546149ce81613efd565b6149d881866141ac565b945060018216600081146149f35760018114614a0857614a3b565b60ff1983168652811515820286019350614a3b565b614a1185613f2e565b60005b83811015614a3357815481890152600182019150602081019050614a14565b838801955050505b50505092915050565b6000614a4f8261499e565b9150614a5b82866149c1565b9150614a6682614283565b9150614a7282856149c1565b9150614a7d826142cf565b9150614a8982846142fc565b602082019150819050949350505050565b7f50726f70657274792052656e7420537461747573000000000000000000000000600082015250565b6000614ad06014836141ac565b9150614adb82614a9a565b601482019050919050565b6000614af182614392565b9150614afc826143de565b9150614b078261442a565b9150614b12826143de565b9150614b1d82614ac3565b9150614b28826143de565b9150614b3482846144af565b915081905092915050565b6000614b5a614b55614b50846138a5565b613fb2565b6134e6565b9050919050565b614b6a81614b3f565b82525050565b6000602082019050614b856000830184614b61565b92915050565b7f4e487b7100000000000000000000000000000000000000000000000000000000600052603260045260246000fd5b6000614bc68285614229565b9150614bd28284614229565b91508190509392505050565b6000602082019050614bf36000830184613b92565b92915050565b6000608082019050614c0e6000830187613792565b614c1b6020830186613792565b614c286040830185613828565b8181036060830152614c3a818461454a565b905095945050505050565b600081519050614c5481613603565b92915050565b600060208284031215614c7057614c6f613396565b5b6000614c7e84828501614c45565b91505092915050565b7f4e487b7100000000000000000000000000000000000000000000000000000000600052601260045260246000fdfea2646970667358221220662cf66798024ddf14d4e2d22971a86aa833bb280232a57de9b2b53b22af0a5e64736f6c63430008150033",
  "linkReferences": {},
  "deployedLinkReferences": {}
}